{
  "_format": "hh-sol-artifact-1",
  "contractName": "ProductRegistry",
  "sourceName": "contracts/ProductRegistry.sol",
  "abi": [
    {
      "anonymous": false,
      "inputs": [
        {
          "indexed": true,
          "internalType": "uint256",
          "name": "productId",
          "type": "uint256"
        },
        {
          "indexed": true,
          "internalType": "address",
          "name": "producer",
          "type": "address"
        },
        {
          "indexed": false,
          "internalType": "string",
          "name": "name",
          "type": "string"
        }
      ],
      "name": "ProductCreated",
      "type": "event"
    },
    {
      "anonymous": false,
      "inputs": [
        {
          "indexed": true,
          "internalType": "uint256",
          "name": "productId",
          "type": "uint256"
        }
      ],
      "name": "ProductDeactivated",
      "type": "event"
    },
    {
      "anonymous": false,
      "inputs": [
        {
          "indexed": true,
          "internalType": "uint256",
          "name": "productId",
          "type": "uint256"
        },
        {
          "indexed": false,
          "internalType": "string",
          "name": "name",
          "type": "string"
        }
      ],
      "name": "ProductUpdated",
      "type": "event"
    },
    {
      "inputs": [
        {
          "internalType": "string",
          "name": "_name",
          "type": "string"
        },
        {
          "internalType": "string",
          "name": "_description",
          "type": "string"
        },
        {
          "internalType": "string",
          "name": "_category",
          "type": "string"
        },
        {
          "internalType": "string",
          "name": "_unit",
          "type": "string"
        },
        {
          "internalType": "string",
          "name": "_metadata",
          "type": "string"
        }
      ],
      "name": "createProduct",
      "outputs": [
        {
          "internalType": "uint256",
          "name": "",
          "type": "uint256"
        }
      ],
      "stateMutability": "nonpayable",
      "type": "function"
    },
    {
      "inputs": [
        {
          "internalType": "uint256",
          "name": "_productId",
          "type": "uint256"
        }
      ],
      "name": "deactivateProduct",
      "outputs": [],
      "stateMutability": "nonpayable",
      "type": "function"
    },
    {
      "inputs": [
        {
          "internalType": "string",
          "name": "_category",
          "type": "string"
        }
      ],
      "name": "getCategoryProducts",
      "outputs": [
        {
          "internalType": "uint256[]",
          "name": "",
          "type": "uint256[]"
        }
      ],
      "stateMutability": "view",
      "type": "function"
    },
    {
      "inputs": [
        {
          "internalType": "address",
          "name": "_producer",
          "type": "address"
        }
      ],
      "name": "getProducerProducts",
      "outputs": [
        {
          "internalType": "uint256[]",
          "name": "",
          "type": "uint256[]"
        }
      ],
      "stateMutability": "view",
      "type": "function"
    },
    {
      "inputs": [
        {
          "internalType": "uint256",
          "name": "_productId",
          "type": "uint256"
        }
      ],
      "name": "getProduct",
      "outputs": [
        {
          "internalType": "uint256",
          "name": "productId",
          "type": "uint256"
        },
        {
          "internalType": "string",
          "name": "name",
          "type": "string"
        },
        {
          "internalType": "string",
          "name": "description",
          "type": "string"
        },
        {
          "internalType": "string",
          "name": "category",
          "type": "string"
        },
        {
          "internalType": "string",
          "name": "unit",
          "type": "string"
        },
        {
          "internalType": "address",
          "name": "producer",
          "type": "address"
        },
        {
          "internalType": "uint256",
          "name": "createdAt",
          "type": "uint256"
        },
        {
          "internalType": "bool",
          "name": "isActive",
          "type": "bool"
        },
        {
          "internalType": "string",
          "name": "metadata",
          "type": "string"
        }
      ],
      "stateMutability": "view",
      "type": "function"
    },
    {
      "inputs": [
        {
          "internalType": "uint256",
          "name": "_productId",
          "type": "uint256"
        },
        {
          "internalType": "string",
          "name": "_name",
          "type": "string"
        },
        {
          "internalType": "string",
          "name": "_description",
          "type": "string"
        },
        {
          "internalType": "string",
          "name": "_category",
          "type": "string"
        },
        {
          "internalType": "string",
          "name": "_unit",
          "type": "string"
        },
        {
          "internalType": "string",
          "name": "_metadata",
          "type": "string"
        }
      ],
      "name": "updateProduct",
      "outputs": [],
      "stateMutability": "nonpayable",
      "type": "function"
    }
  ],
  "bytecode": "0x608060405234801561001057600080fd5b506110ff806100206000396000f3fe608060405234801561001057600080fd5b50600436106100625760003560e01c80635b0769d6146100675780637ce9bcf41461008d57806380dc7d6f146100ad578063b9db15b4146100c0578063da6ca58c146100e8578063fd77e5de146100fd575b600080fd5b61007a610075366004610b9b565b610110565b6040519081526020015b60405180910390f35b6100a061009b366004610c6d565b6103b5565b6040516100849190610c9d565b6100a06100bb366004610ce1565b610421565b6100d36100ce366004610d1e565b61048f565b60405161008499989796959493929190610d87565b6100fb6100f6366004610e20565b610853565b005b6100fb61010b366004610d1e565b6109c4565b60008086511161015e5760405162461bcd60e51b81526020600482015260146024820152734e616d652063616e6e6f7420626520656d70747960601b60448201526064015b60405180910390fd5b60008451116101af5760405162461bcd60e51b815260206004820152601860248201527f43617465676f72792063616e6e6f7420626520656d70747900000000000000006044820152606401610155565b60008351116101f75760405162461bcd60e51b8152602060048201526014602482015273556e69742063616e6e6f7420626520656d70747960601b6044820152606401610155565b60008054908061020683610efa565b909155505060008054604080516101208101825282815260208082018b81528284018b9052606083018a9052608083018990523360a08401524260c0840152600160e084018190526101008401899052858752918290529290942081518155915192939092908201906102799082610faa565b506040820151600282019061028e9082610faa565b50606082015160038201906102a39082610faa565b50608082015160048201906102b89082610faa565b5060a08201516005820180546001600160a01b0319166001600160a01b0390921691909117905560c0820151600682015560e082015160078201805460ff191691151591909117905561010082015160088201906103169082610faa565b505033600090815260026020908152604080832080546001810182559084529190922001839055516003915061034d90879061106a565b90815260405190819003602090810182208054600181018255600091825291902001829055339082907f91bfc064380de20e1c90ea2ed78d0358b4ab45d446c0b93b0b07bc86f95897da906103a3908b90611086565b60405180910390a39695505050505050565b6001600160a01b03811660009081526002602090815260409182902080548351818402810184019094528084526060939283018282801561041557602002820191906000526020600020905b815481526020019060010190808311610401575b50505050509050919050565b6060600382604051610433919061106a565b908152604080519182900360209081018320805480830285018301909352828452919083018282801561041557602002820191906000526020600020908154815260200190600101908083116104015750505050509050919050565b6000606080606080600080600060608960016000828152602001908152602001600020600001546000036104d55760405162461bcd60e51b815260040161015590611099565b60008b81526001602081815260408084208151610120810190925280548252928301805491939284019161050890610f21565b80601f016020809104026020016040519081016040528092919081815260200182805461053490610f21565b80156105815780601f1061055657610100808354040283529160200191610581565b820191906000526020600020905b81548152906001019060200180831161056457829003601f168201915b5050505050815260200160028201805461059a90610f21565b80601f01602080910402602001604051908101604052809291908181526020018280546105c690610f21565b80156106135780601f106105e857610100808354040283529160200191610613565b820191906000526020600020905b8154815290600101906020018083116105f657829003601f168201915b5050505050815260200160038201805461062c90610f21565b80601f016020809104026020016040519081016040528092919081815260200182805461065890610f21565b80156106a55780601f1061067a576101008083540402835291602001916106a5565b820191906000526020600020905b81548152906001019060200180831161068857829003601f168201915b505050505081526020016004820180546106be90610f21565b80601f01602080910402602001604051908101604052809291908181526020018280546106ea90610f21565b80156107375780601f1061070c57610100808354040283529160200191610737565b820191906000526020600020905b81548152906001019060200180831161071a57829003601f168201915b505050918352505060058201546001600160a01b0316602082015260068201546040820152600782015460ff161515606082015260088201805460809092019161078090610f21565b80601f01602080910402602001604051908101604052809291908181526020018280546107ac90610f21565b80156107f95780601f106107ce576101008083540402835291602001916107f9565b820191906000526020600020905b8154815290600101906020018083116107dc57829003601f168201915b5050505050815250509050806000015181602001518260400151836060015184608001518560a001518660c001518760e001518861010001519a509a509a509a509a509a509a509a509a5050509193959799909294969850565b6000868152600160205260408120548791036108815760405162461bcd60e51b815260040161015590611099565b600087815260016020526040902060058101546001600160a01b031633146108eb5760405162461bcd60e51b815260206004820181905260248201527f4f6e6c792070726f64756365722063616e207570646174652070726f647563746044820152606401610155565b600781015460ff166109375760405162461bcd60e51b815260206004820152601560248201527450726f64756374206973206e6f742061637469766560581b6044820152606401610155565b600181016109458882610faa565b50600281016109548782610faa565b50600381016109638682610faa565b50600481016109728582610faa565b50600881016109818482610faa565b50877fdad7092ee1ca215307c34b5dd865bb1f9be7e1f0110d230eaefd78fa4742903e886040516109b29190611086565b60405180910390a25050505050505050565b6000818152600160205260408120548291036109f25760405162461bcd60e51b815260040161015590611099565b600082815260016020526040902060058101546001600160a01b03163314610a685760405162461bcd60e51b8152602060048201526024808201527f4f6e6c792070726f64756365722063616e20646561637469766174652070726f604482015263191d58dd60e21b6064820152608401610155565b600781015460ff16610abc5760405162461bcd60e51b815260206004820152601b60248201527f50726f6475637420616c726561647920646561637469766174656400000000006044820152606401610155565b60078101805460ff1916905560405183907f241c84b17626110b8c42e26f8f7de483066e7f266953509e01046f09e6fdd6cc90600090a2505050565b634e487b7160e01b600052604160045260246000fd5b600082601f830112610b1f57600080fd5b813567ffffffffffffffff80821115610b3a57610b3a610af8565b604051601f8301601f19908116603f01168101908282118183101715610b6257610b62610af8565b81604052838152866020858801011115610b7b57600080fd5b836020870160208301376000602085830101528094505050505092915050565b600080600080600060a08688031215610bb357600080fd5b853567ffffffffffffffff80821115610bcb57600080fd5b610bd789838a01610b0e565b96506020880135915080821115610bed57600080fd5b610bf989838a01610b0e565b95506040880135915080821115610c0f57600080fd5b610c1b89838a01610b0e565b94506060880135915080821115610c3157600080fd5b610c3d89838a01610b0e565b93506080880135915080821115610c5357600080fd5b50610c6088828901610b0e565b9150509295509295909350565b600060208284031215610c7f57600080fd5b81356001600160a01b0381168114610c9657600080fd5b9392505050565b6020808252825182820181905260009190848201906040850190845b81811015610cd557835183529284019291840191600101610cb9565b50909695505050505050565b600060208284031215610cf357600080fd5b813567ffffffffffffffff811115610d0a57600080fd5b610d1684828501610b0e565b949350505050565b600060208284031215610d3057600080fd5b5035919050565b60005b83811015610d52578181015183820152602001610d3a565b50506000910152565b60008151808452610d73816020860160208601610d37565b601f01601f19169290920160200192915050565b60006101208b8352806020840152610da18184018c610d5b565b90508281036040840152610db5818b610d5b565b90508281036060840152610dc9818a610d5b565b90508281036080840152610ddd8189610d5b565b6001600160a01b03881660a085015260c0840187905285151560e08501528381036101008501529050610e108185610d5b565b9c9b505050505050505050505050565b60008060008060008060c08789031215610e3957600080fd5b86359550602087013567ffffffffffffffff80821115610e5857600080fd5b610e648a838b01610b0e565b96506040890135915080821115610e7a57600080fd5b610e868a838b01610b0e565b95506060890135915080821115610e9c57600080fd5b610ea88a838b01610b0e565b94506080890135915080821115610ebe57600080fd5b610eca8a838b01610b0e565b935060a0890135915080821115610ee057600080fd5b50610eed89828a01610b0e565b9150509295509295509295565b600060018201610f1a57634e487b7160e01b600052601160045260246000fd5b5060010190565b600181811c90821680610f3557607f821691505b602082108103610f5557634e487b7160e01b600052602260045260246000fd5b50919050565b601f821115610fa557600081815260208120601f850160051c81016020861015610f825750805b601f850160051c820191505b81811015610fa157828155600101610f8e565b5050505b505050565b815167ffffffffffffffff811115610fc457610fc4610af8565b610fd881610fd28454610f21565b84610f5b565b602080601f83116001811461100d5760008415610ff55750858301515b600019600386901b1c1916600185901b178555610fa1565b600085815260208120601f198616915b8281101561103c5788860151825594840194600190910190840161101d565b508582101561105a5787850151600019600388901b60f8161c191681555b5050505050600190811b01905550565b6000825161107c818460208701610d37565b9190910192915050565b602081526000610c966020830184610d5b565b602080825260169082015275141c9bd91d58dd08191bd95cc81b9bdd08195e1a5cdd60521b60408201526060019056fea264697066735822122002e2854dd4c293510228f68f5a71b87db4570972e2051f30ec8dc346ec80b8d564736f6c63430008140033",
  "linkReferences": {},
  "deployedLinkReferences": {}
}