{
  "_format": "hh-sol-artifact-1",
  "contractName": "UserRegistry",
  "sourceName": "contracts/UserRegistry.sol",
  "abi": [
    {
      "anonymous": false,
      "inputs": [
        {
          "indexed": true,
          "internalType": "address",
          "name": "userAddress",
          "type": "address"
        }
      ],
      "name": "UserDeactivated",
      "type": "event"
    },
    {
      "anonymous": false,
      "inputs": [
        {
          "indexed": true,
          "internalType": "address",
          "name": "userAddress",
          "type": "address"
        },
        {
          "indexed": false,
          "internalType": "string",
          "name": "name",
          "type": "string"
        },
        {
          "indexed": false,
          "internalType": "string",
          "name": "role",
          "type": "string"
        }
      ],
      "name": "UserRegistered",
      "type": "event"
    },
    {
      "anonymous": false,
      "inputs": [
        {
          "indexed": true,
          "internalType": "address",
          "name": "userAddress",
          "type": "address"
        },
        {
          "indexed": false,
          "internalType": "string",
          "name": "name",
          "type": "string"
        },
        {
          "indexed": false,
          "internalType": "string",
          "name": "role",
          "type": "string"
        }
      ],
      "name": "UserUpdated",
      "type": "event"
    },
    {
      "inputs": [],
      "name": "deactivateUser",
      "outputs": [],
      "stateMutability": "nonpayable",
      "type": "function"
    },
    {
      "inputs": [
        {
          "internalType": "address",
          "name": "_userAddress",
          "type": "address"
        }
      ],
      "name": "getUser",
      "outputs": [
        {
          "internalType": "string",
          "name": "name",
          "type": "string"
        },
        {
          "internalType": "string",
          "name": "email",
          "type": "string"
        },
        {
          "internalType": "string",
          "name": "role",
          "type": "string"
        },
        {
          "internalType": "bool",
          "name": "isActive",
          "type": "bool"
        },
        {
          "internalType": "uint256",
          "name": "registrationDate",
          "type": "uint256"
        }
      ],
      "stateMutability": "view",
      "type": "function"
    },
    {
      "inputs": [
        {
          "internalType": "address",
          "name": "_userAddress",
          "type": "address"
        }
      ],
      "name": "isUserRegistered",
      "outputs": [
        {
          "internalType": "bool",
          "name": "",
          "type": "bool"
        }
      ],
      "stateMutability": "view",
      "type": "function"
    },
    {
      "inputs": [
        {
          "internalType": "string",
          "name": "_name",
          "type": "string"
        },
        {
          "internalType": "string",
          "name": "_email",
          "type": "string"
        },
        {
          "internalType": "string",
          "name": "_role",
          "type": "string"
        }
      ],
      "name": "registerUser",
      "outputs": [],
      "stateMutability": "nonpayable",
      "type": "function"
    },
    {
      "inputs": [
        {
          "internalType": "string",
          "name": "_name",
          "type": "string"
        },
        {
          "internalType": "string",
          "name": "_email",
          "type": "string"
        },
        {
          "internalType": "string",
          "name": "_role",
          "type": "string"
        }
      ],
      "name": "updateUser",
      "outputs": [],
      "stateMutability": "nonpayable",
      "type": "function"
    }
  ],
  "bytecode": "0x608060405234801561001057600080fd5b50610b2e806100206000396000f3fe608060405234801561001057600080fd5b50600436106100575760003560e01c8063163f75221461005c57806355ea20001461009d57806360903be6146100a75780636f77926b146100ba578063d637dcfa146100de575b600080fd5b61008861006a366004610765565b6001600160a01b031660009081526001602052604090205460ff1690565b60405190151581526020015b60405180910390f35b6100a56100f1565b005b6100a56100b5366004610838565b6101cd565b6100cd6100c8366004610765565b6102ef565b604051610094959493929190610906565b6100a56100ec366004610838565b61054d565b3360009081526001602052604090205460ff166101295760405162461bcd60e51b815260040161012090610954565b60405180910390fd5b3360009081526020819052604090206003015460ff1661018b5760405162461bcd60e51b815260206004820152601860248201527f5573657220616c726561647920646561637469766174656400000000000000006044820152606401610120565b33600081815260208190526040808220600301805460ff19169055517f5554feec4e87bc4eba14bd62f71df68156f97d26128616fbc27d28e33b35a6b49190a2565b3360009081526001602052604090205460ff166101fc5760405162461bcd60e51b815260040161012090610954565b3360009081526020819052604090206003015460ff166102535760405162461bcd60e51b815260206004820152601260248201527155736572206973206e6f742061637469766560701b6044820152606401610120565b33600090815260208190526040902061026c8482610a0a565b503360009081526020819052604090206001016102898382610a0a565b503360009081526020819052604090206002016102a68282610a0a565b50336001600160a01b03167fe5d18d6612696bff7df1db8015eac613241613297fa2ba2783993e4fd0e76f3d84836040516102e2929190610aca565b60405180910390a2505050565b6001600160a01b0381166000908152600160205260408120546060918291829190819060ff166103315760405162461bcd60e51b815260040161012090610954565b6001600160a01b038616600090815260208190526040808220815160a0810190925280548290829061036290610981565b80601f016020809104026020016040519081016040528092919081815260200182805461038e90610981565b80156103db5780601f106103b0576101008083540402835291602001916103db565b820191906000526020600020905b8154815290600101906020018083116103be57829003601f168201915b505050505081526020016001820180546103f490610981565b80601f016020809104026020016040519081016040528092919081815260200182805461042090610981565b801561046d5780601f106104425761010080835404028352916020019161046d565b820191906000526020600020905b81548152906001019060200180831161045057829003601f168201915b5050505050815260200160028201805461048690610981565b80601f01602080910402602001604051908101604052809291908181526020018280546104b290610981565b80156104ff5780601f106104d4576101008083540402835291602001916104ff565b820191906000526020600020905b8154815290600101906020018083116104e257829003601f168201915b5050509183525050600382015460ff161515602080830191909152600490920154604091820152825191830151908301516060840151608090940151929b919a509850919650945092505050565b3360009081526001602052604090205460ff16156105ad5760405162461bcd60e51b815260206004820152601760248201527f5573657220616c726561647920726567697374657265640000000000000000006044820152606401610120565b60008351116105f55760405162461bcd60e51b81526020600482015260146024820152734e616d652063616e6e6f7420626520656d70747960601b6044820152606401610120565b600082511161063e5760405162461bcd60e51b8152602060048201526015602482015274456d61696c2063616e6e6f7420626520656d70747960581b6044820152606401610120565b60008151116106865760405162461bcd60e51b8152602060048201526014602482015273526f6c652063616e6e6f7420626520656d70747960601b6044820152606401610120565b6040805160a0810182528481526020808201859052818301849052600160608301524260808301523360009081529081905291909120815181906106ca9082610a0a565b50602082015160018201906106df9082610a0a565b50604082015160028201906106f49082610a0a565b50606082015160038201805491151560ff199283161790556080909201516004909101553360008181526001602081905260409182902080549094161790925590517f92822564bab8864c3a47b34e8d23fbce5c46234eb5da261f94087b995ac0f33b906102e29086908590610aca565b60006020828403121561077757600080fd5b81356001600160a01b038116811461078e57600080fd5b9392505050565b634e487b7160e01b600052604160045260246000fd5b600082601f8301126107bc57600080fd5b813567ffffffffffffffff808211156107d7576107d7610795565b604051601f8301601f19908116603f011681019082821181831017156107ff576107ff610795565b8160405283815286602085880101111561081857600080fd5b836020870160208301376000602085830101528094505050505092915050565b60008060006060848603121561084d57600080fd5b833567ffffffffffffffff8082111561086557600080fd5b610871878388016107ab565b9450602086013591508082111561088757600080fd5b610893878388016107ab565b935060408601359150808211156108a957600080fd5b506108b6868287016107ab565b9150509250925092565b6000815180845260005b818110156108e6576020818501810151868301820152016108ca565b506000602082860101526020601f19601f83011685010191505092915050565b60a08152600061091960a08301886108c0565b828103602084015261092b81886108c0565b9050828103604084015261093f81876108c0565b94151560608401525050608001529392505050565b602080825260139082015272155cd95c881b9bdd081c9959da5cdd195c9959606a1b604082015260600190565b600181811c9082168061099557607f821691505b6020821081036109b557634e487b7160e01b600052602260045260246000fd5b50919050565b601f821115610a0557600081815260208120601f850160051c810160208610156109e25750805b601f850160051c820191505b81811015610a01578281556001016109ee565b5050505b505050565b815167ffffffffffffffff811115610a2457610a24610795565b610a3881610a328454610981565b846109bb565b602080601f831160018114610a6d5760008415610a555750858301515b600019600386901b1c1916600185901b178555610a01565b600085815260208120601f198616915b82811015610a9c57888601518255948401946001909101908401610a7d565b5085821015610aba5787850151600019600388901b60f8161c191681555b5050505050600190811b01905550565b604081526000610add60408301856108c0565b8281036020840152610aef81856108c0565b9594505050505056fea26469706673582212201293e043b238e3f0e23740ab19482cf954af4fac4cea3570164454f6fc240b9264736f6c63430008140033",
  "linkReferences": {},
  "deployedLinkReferences": {}
}