{
  "contractName": "OperationRegistry",
  "abi": [
    {
      "anonymous": false,
      "inputs": [
        {
          "indexed": true,
          "internalType": "uint256",
          "name": "operationId",
          "type": "uint256"
        },
        {
          "indexed": true,
          "internalType": "address",
          "name": "operator",
          "type": "address"
        },
        {
          "indexed": false,
          "internalType": "string",
          "name": "operationType",
          "type": "string"
        }
      ],
      "name": "OperationCreated",
      "type": "event"
    },
    {
      "anonymous": false,
      "inputs": [
        {
          "indexed": true,
          "internalType": "uint256",
          "name": "operationId",
          "type": "uint256"
        },
        {
          "indexed": false,
          "internalType": "string",
          "name": "metadata",
          "type": "string"
        }
      ],
      "name": "OperationMetadataUpdated",
      "type": "event"
    },
    {
      "anonymous": false,
      "inputs": [
        {
          "indexed": true,
          "internalType": "uint256",
          "name": "operationId",
          "type": "uint256"
        },
        {
          "indexed": false,
          "internalType": "string",
          "name": "newStatus",
          "type": "string"
        }
      ],
      "name": "OperationStatusUpdated",
      "type": "event"
    },
    {
      "inputs": [
        {
          "internalType": "string",
          "name": "_operationType",
          "type": "string"
        },
        {
          "internalType": "string",
          "name": "_description",
          "type": "string"
        },
        {
          "internalType": "string",
          "name": "_location",
          "type": "string"
        },
        {
          "internalType": "string",
          "name": "_metadata",
          "type": "string"
        }
      ],
      "name": "createOperation",
      "outputs": [
        {
          "internalType": "uint256",
          "name": "",
          "type": "uint256"
        }
      ],
      "stateMutability": "nonpayable",
      "type": "function"
    },
    {
      "inputs": [
        {
          "internalType": "uint256",
          "name": "_operationId",
          "type": "uint256"
        },
        {
          "internalType": "string",
          "name": "_newStatus",
          "type": "string"
        }
      ],
      "name": "updateOperationStatus",
      "outputs": [],
      "stateMutability": "nonpayable",
      "type": "function"
    },
    {
      "inputs": [
        {
          "internalType": "uint256",
          "name": "_operationId",
          "type": "uint256"
        },
        {
          "internalType": "string",
          "name": "_metadata",
          "type": "string"
        }
      ],
      "name": "updateOperationMetadata",
      "outputs": [],
      "stateMutability": "nonpayable",
      "type": "function"
    },
    {
      "inputs": [
        {
          "internalType": "uint256",
          "name": "_operationId",
          "type": "uint256"
        }
      ],
      "name": "getOperation",
      "outputs": [
        {
          "internalType": "uint256",
          "name": "operationId",
          "type": "uint256"
        },
        {
          "internalType": "address",
          "name": "operator",
          "type": "address"
        },
        {
          "internalType": "string",
          "name": "operationType",
          "type": "string"
        },
        {
          "internalType": "string",
          "name": "description",
          "type": "string"
        },
        {
          "internalType": "string",
          "name": "location",
          "type": "string"
        },
        {
          "internalType": "uint256",
          "name": "timestamp",
          "type": "uint256"
        },
        {
          "internalType": "string",
          "name": "status",
          "type": "string"
        },
        {
          "internalType": "string",
          "name": "metadata",
          "type": "string"
        }
      ],
      "stateMutability": "view",
      "type": "function"
    },
    {
      "inputs": [
        {
          "internalType": "address",
          "name": "_user",
          "type": "address"
        }
      ],
      "name": "getUserOperations",
      "outputs": [
        {
          "internalType": "uint256[]",
          "name": "",
          "type": "uint256[]"
        }
      ],
      "stateMutability": "view",
      "type": "function"
    }
  ],
  "bytecode": "0x608060405234801561000f575f80fd5b5061166b8061001d5f395ff3fe608060405234801561000f575f80fd5b5060043610610055575f3560e01c80630caa0d4b14610059578063202e3924146100755780635fc89e7c146100ac5780639bcce59d146100c8578063e2ab79b1146100f8575b5f80fd5b610073600480360381019061006e9190610ccb565b610128565b005b61008f600480360381019061008a9190610d25565b6101e2565b6040516100a3989796959493929190610e18565b60405180910390f35b6100c660048036038101906100c19190610ccb565b6105df565b005b6100e260048036038101906100dd9190610eb7565b6107b8565b6040516100ef9190610f8b565b60405180910390f35b610112600480360381019061010d9190610fce565b610ab8565b60405161011f91906110b0565b60405180910390f35b815f60015f8381526020019081526020015f205f01540361017e576040517f08c379a00000000000000000000000000000000000000000000000000000000081526004016101759061111a565b60405180910390fd5b5f60015f8581526020019081526020015f209050828160070190816101a39190611332565b50837fdb1b9b8c0fa594db1fbffe5ea75e9e568e5e49b76910afcbd992e9b7eb61ba69846040516101d49190611401565b60405180910390a250505050565b5f8060608060605f606080885f60015f8381526020019081526020015f205f015403610243576040517f08c379a000000000000000000000000000000000000000000000000000000000815260040161023a9061111a565b60405180910390fd5b5f60015f8c81526020019081526020015f20604051806101000160405290815f8201548152602001600182015f9054906101000a900473ffffffffffffffffffffffffffffffffffffffff1673ffffffffffffffffffffffffffffffffffffffff1673ffffffffffffffffffffffffffffffffffffffff1681526020016002820180546102cf90611165565b80601f01602080910402602001604051908101604052809291908181526020018280546102fb90611165565b80156103465780601f1061031d57610100808354040283529160200191610346565b820191905f5260205f20905b81548152906001019060200180831161032957829003601f168201915b5050505050815260200160038201805461035f90611165565b80601f016020809104026020016040519081016040528092919081815260200182805461038b90611165565b80156103d65780601f106103ad576101008083540402835291602001916103d6565b820191905f5260205f20905b8154815290600101906020018083116103b957829003601f168201915b505050505081526020016004820180546103ef90611165565b80601f016020809104026020016040519081016040528092919081815260200182805461041b90611165565b80156104665780601f1061043d57610100808354040283529160200191610466565b820191905f5260205f20905b81548152906001019060200180831161044957829003601f168201915b505050505081526020016005820154815260200160068201805461048990611165565b80601f01602080910402602001604051908101604052809291908181526020018280546104b590611165565b80156105005780601f106104d757610100808354040283529160200191610500565b820191905f5260205f20905b8154815290600101906020018083116104e357829003601f168201915b5050505050815260200160078201805461051990611165565b80601f016020809104026020016040519081016040528092919081815260200182805461054590611165565b80156105905780601f1061056757610100808354040283529160200191610590565b820191905f5260205f20905b81548152906001019060200180831161057357829003601f168201915b5050505050815250509050805f015181602001518260400151836060015184608001518560a001518660c001518760e00151995099509950995099509950995099505050919395975091939597565b815f60015f8381526020019081526020015f205f015403610635576040517f08c379a000000000000000000000000000000000000000000000000000000000815260040161062c9061111a565b60405180910390fd5b5f60015f8581526020019081526020015f2090506040518060400160405280600b81526020017f494e5f50524f475245535300000000000000000000000000000000000000000081525080519060200120838051906020012014806106dc57506040518060400160405280600981526020017f434f4d504c455445440000000000000000000000000000000000000000000000815250805190602001208380519060200120145b8061072957506040518060400160405280600981526020017f43414e43454c4c45440000000000000000000000000000000000000000000000815250805190602001208380519060200120145b610768576040517f08c379a000000000000000000000000000000000000000000000000000000000815260040161075f9061146b565b60405180910390fd5b828160060190816107799190611332565b50837f5ce2807b483df48397bfa712826f58b2c885e4abf28bb96352c6da74906c1551846040516107aa9190611401565b60405180910390a250505050565b5f808551116107fc576040517f08c379a00000000000000000000000000000000000000000000000000000000081526004016107f3906114d3565b60405180910390fd5b5f84511161083f576040517f08c379a00000000000000000000000000000000000000000000000000000000081526004016108369061153b565b60405180910390fd5b5f835111610882576040517f08c379a0000000000000000000000000000000000000000000000000000000008152600401610879906115a3565b60405180910390fd5b5f80815480929190610893906115ee565b91905055505f805490506040518061010001604052808281526020013373ffffffffffffffffffffffffffffffffffffffff1681526020018781526020018681526020018581526020014281526020016040518060400160405280600b81526020017f494e5f50524f475245535300000000000000000000000000000000000000000081525081526020018481525060015f8381526020019081526020015f205f820151815f01556020820151816001015f6101000a81548173ffffffffffffffffffffffffffffffffffffffff021916908373ffffffffffffffffffffffffffffffffffffffff16021790555060408201518160020190816109969190611332565b5060608201518160030190816109ac9190611332565b5060808201518160040190816109c29190611332565b5060a0820151816005015560c08201518160060190816109e29190611332565b5060e08201518160070190816109f89190611332565b5090505060025f3373ffffffffffffffffffffffffffffffffffffffff1673ffffffffffffffffffffffffffffffffffffffff1681526020019081526020015f2081908060018154018082558091505060019003905f5260205f20015f90919091909150553373ffffffffffffffffffffffffffffffffffffffff16817f24a439a0f1a1fabccf0e86a4e3dff944e1321e09cc9652d4e03c0b93a15feea788604051610aa49190611401565b60405180910390a380915050949350505050565b606060025f8373ffffffffffffffffffffffffffffffffffffffff1673ffffffffffffffffffffffffffffffffffffffff1681526020019081526020015f20805480602002602001604051908101604052809291908181526020018280548015610b3f57602002820191905f5260205f20905b815481526020019060010190808311610b2b575b50505050509050919050565b5f604051905090565b5f80fd5b5f80fd5b5f819050919050565b610b6e81610b5c565b8114610b78575f80fd5b50565b5f81359050610b8981610b65565b92915050565b5f80fd5b5f80fd5b5f601f19601f8301169050919050565b7f4e487b71000000000000000000000000000000000000000000000000000000005f52604160045260245ffd5b610bdd82610b97565b810181811067ffffffffffffffff82111715610bfc57610bfb610ba7565b5b80604052505050565b5f610c0e610b4b565b9050610c1a8282610bd4565b919050565b5f67ffffffffffffffff821115610c3957610c38610ba7565b5b610c4282610b97565b9050602081019050919050565b828183375f83830152505050565b5f610c6f610c6a84610c1f565b610c05565b905082815260208101848484011115610c8b57610c8a610b93565b5b610c96848285610c4f565b509392505050565b5f82601f830112610cb257610cb1610b8f565b5b8135610cc2848260208601610c5d565b91505092915050565b5f8060408385031215610ce157610ce0610b54565b5b5f610cee85828601610b7b565b925050602083013567ffffffffffffffff811115610d0f57610d0e610b58565b5b610d1b85828601610c9e565b9150509250929050565b5f60208284031215610d3a57610d39610b54565b5b5f610d4784828501610b7b565b91505092915050565b610d5981610b5c565b82525050565b5f73ffffffffffffffffffffffffffffffffffffffff82169050919050565b5f610d8882610d5f565b9050919050565b610d9881610d7e565b82525050565b5f81519050919050565b5f82825260208201905092915050565b5f5b83811015610dd5578082015181840152602081019050610dba565b5f8484015250505050565b5f610dea82610d9e565b610df48185610da8565b9350610e04818560208601610db8565b610e0d81610b97565b840191505092915050565b5f61010082019050610e2c5f83018b610d50565b610e39602083018a610d8f565b8181036040830152610e4b8189610de0565b90508181036060830152610e5f8188610de0565b90508181036080830152610e738187610de0565b9050610e8260a0830186610d50565b81810360c0830152610e948185610de0565b905081810360e0830152610ea88184610de0565b90509998505050505050505050565b5f805f8060808587031215610ecf57610ece610b54565b5b5f85013567ffffffffffffffff811115610eec57610eeb610b58565b5b610ef887828801610c9e565b945050602085013567ffffffffffffffff811115610f1957610f18610b58565b5b610f2587828801610c9e565b935050604085013567ffffffffffffffff811115610f4657610f45610b58565b5b610f5287828801610c9e565b925050606085013567ffffffffffffffff811115610f7357610f72610b58565b5b610f7f87828801610c9e565b91505092959194509250565b5f602082019050610f9e5f830184610d50565b92915050565b610fad81610d7e565b8114610fb7575f80fd5b50565b5f81359050610fc881610fa4565b92915050565b5f60208284031215610fe357610fe2610b54565b5b5f610ff084828501610fba565b91505092915050565b5f81519050919050565b5f82825260208201905092915050565b5f819050602082019050919050565b61102b81610b5c565b82525050565b5f61103c8383611022565b60208301905092915050565b5f602082019050919050565b5f61105e82610ff9565b6110688185611003565b935061107383611013565b805f5b838110156110a357815161108a8882611031565b975061109583611048565b925050600181019050611076565b5085935050505092915050565b5f6020820190508181035f8301526110c88184611054565b905092915050565b7f4f7065726174696f6e20646f6573206e6f7420657869737400000000000000005f82015250565b5f611104601883610da8565b915061110f826110d0565b602082019050919050565b5f6020820190508181035f830152611131816110f8565b9050919050565b7f4e487b71000000000000000000000000000000000000000000000000000000005f52602260045260245ffd5b5f600282049050600182168061117c57607f821691505b60208210810361118f5761118e611138565b5b50919050565b5f819050815f5260205f209050919050565b5f6020601f8301049050919050565b5f82821b905092915050565b5f600883026111f17fffffffffffffffffffffffffffffffffffffffffffffffffffffffffffffffff826111b6565b6111fb86836111b6565b95508019841693508086168417925050509392505050565b5f819050919050565b5f61123661123161122c84610b5c565b611213565b610b5c565b9050919050565b5f819050919050565b61124f8361121c565b61126361125b8261123d565b8484546111c2565b825550505050565b5f90565b61127761126b565b611282818484611246565b505050565b5b818110156112a55761129a5f8261126f565b600181019050611288565b5050565b601f8211156112ea576112bb81611195565b6112c4846111a7565b810160208510156112d3578190505b6112e76112df856111a7565b830182611287565b50505b505050565b5f82821c905092915050565b5f61130a5f19846008026112ef565b1980831691505092915050565b5f61132283836112fb565b9150826002028217905092915050565b61133b82610d9e565b67ffffffffffffffff81111561135457611353610ba7565b5b61135e8254611165565b6113698282856112a9565b5f60209050601f83116001811461139a575f8415611388578287015190505b6113928582611317565b8655506113f9565b601f1984166113a886611195565b5f5b828110156113cf578489015182556001820191506020850194506020810190506113aa565b868310156113ec57848901516113e8601f8916826112fb565b8355505b6001600288020188555050505b505050505050565b5f6020820190508181035f8301526114198184610de0565b905092915050565b7f496e76616c6964207374617475730000000000000000000000000000000000005f82015250565b5f611455600e83610da8565b915061146082611421565b602082019050919050565b5f6020820190508181035f83015261148281611449565b9050919050565b7f4f7065726174696f6e20747970652063616e6e6f7420626520656d70747900005f82015250565b5f6114bd601e83610da8565b91506114c882611489565b602082019050919050565b5f6020820190508181035f8301526114ea816114b1565b9050919050565b7f4465736372697074696f6e2063616e6e6f7420626520656d70747900000000005f82015250565b5f611525601b83610da8565b9150611530826114f1565b602082019050919050565b5f6020820190508181035f83015261155281611519565b9050919050565b7f4c6f636174696f6e2063616e6e6f7420626520656d70747900000000000000005f82015250565b5f61158d601883610da8565b915061159882611559565b602082019050919050565b5f6020820190508181035f8301526115ba81611581565b9050919050565b7f4e487b71000000000000000000000000000000000000000000000000000000005f52601160045260245ffd5b5f6115f882610b5c565b91507fffffffffffffffffffffffffffffffffffffffffffffffffffffffffffffffff820361162a576116296115c1565b5b60018201905091905056fea2646970667358221220af7a396188958afad067170fc337098a4ff511da4690a36e320fd6020e2472b264736f6c63430008140033",
  "immutableReferences": {},
  "source": "// SPDX-License-Identifier: MIT\r\npragma solidity ^0.8.0;\r\n\r\ncontract OperationRegistry {\r\n    struct Operation {\r\n        uint256 operationId;\r\n        address operator;\r\n        string operationType; // \"PRODUCTION\", \"PROCESSING\", \"TRANSPORT\", \"STORAGE\", \"DISTRIBUTION\"\r\n        string description;\r\n        string location;\r\n        uint256 timestamp;\r\n        string status; // \"IN_PROGRESS\", \"COMPLETED\", \"CANCELLED\"\r\n        string metadata; // JSON string with additional data\r\n    }\r\n\r\n    uint256 private operationCounter;\r\n    mapping(uint256 => Operation) private operations;\r\n    mapping(address => uint256[]) private userOperations;\r\n\r\n    event OperationCreated(uint256 indexed operationId, address indexed operator, string operationType);\r\n    event OperationStatusUpdated(uint256 indexed operationId, string newStatus);\r\n    event OperationMetadataUpdated(uint256 indexed operationId, string metadata);\r\n\r\n    modifier validOperation(uint256 _operationId) {\r\n        require(operations[_operationId].operationId != 0, \"Operation does not exist\");\r\n        _;\r\n    }\r\n\r\n    function createOperation(\r\n        string memory _operationType,\r\n        string memory _description,\r\n        string memory _location,\r\n        string memory _metadata\r\n    ) external returns (uint256) {\r\n        require(bytes(_operationType).length > 0, \"Operation type cannot be empty\");\r\n        require(bytes(_description).length > 0, \"Description cannot be empty\");\r\n        require(bytes(_location).length > 0, \"Location cannot be empty\");\r\n\r\n        operationCounter++;\r\n        uint256 operationId = operationCounter;\r\n\r\n        operations[operationId] = Operation({\r\n            operationId: operationId,\r\n            operator: msg.sender,\r\n            operationType: _operationType,\r\n            description: _description,\r\n            location: _location,\r\n            timestamp: block.timestamp,\r\n            status: \"IN_PROGRESS\",\r\n            metadata: _metadata\r\n        });\r\n\r\n        userOperations[msg.sender].push(operationId);\r\n        emit OperationCreated(operationId, msg.sender, _operationType);\r\n        return operationId;\r\n    }\r\n\r\n    function updateOperationStatus(uint256 _operationId, string memory _newStatus)\r\n        external\r\n        validOperation(_operationId)\r\n    {\r\n        Operation storage operation = operations[_operationId];\r\n        require(\r\n            keccak256(bytes(_newStatus)) == keccak256(bytes(\"IN_PROGRESS\")) ||\r\n            keccak256(bytes(_newStatus)) == keccak256(bytes(\"COMPLETED\")) ||\r\n            keccak256(bytes(_newStatus)) == keccak256(bytes(\"CANCELLED\")),\r\n            \"Invalid status\"\r\n        );\r\n\r\n        operation.status = _newStatus;\r\n        emit OperationStatusUpdated(_operationId, _newStatus);\r\n    }\r\n\r\n    function updateOperationMetadata(uint256 _operationId, string memory _metadata)\r\n        external\r\n        validOperation(_operationId)\r\n    {\r\n        Operation storage operation = operations[_operationId];\r\n        operation.metadata = _metadata;\r\n        emit OperationMetadataUpdated(_operationId, _metadata);\r\n    }\r\n\r\n    function getOperation(uint256 _operationId)\r\n        external\r\n        view\r\n        validOperation(_operationId)\r\n        returns (\r\n            uint256 operationId,\r\n            address operator,\r\n            string memory operationType,\r\n            string memory description,\r\n            string memory location,\r\n            uint256 timestamp,\r\n            string memory status,\r\n            string memory metadata\r\n        )\r\n    {\r\n        Operation memory operation = operations[_operationId];\r\n        return (\r\n            operation.operationId,\r\n            operation.operator,\r\n            operation.operationType,\r\n            operation.description,\r\n            operation.location,\r\n            operation.timestamp,\r\n            operation.status,\r\n            operation.metadata\r\n        );\r\n    }\r\n\r\n    function getUserOperations(address _user) external view returns (uint256[] memory) {\r\n        return userOperations[_user];\r\n    }\r\n} ",
  "sourcePath": "C:\\Users\\fabio\\Documents\\GitHub\\Project_Sustainable_Food_Supply_Chain\\on_chain\\contracts\\OperationRegistry.sol",
  "compiler": {
    "name": "solc",
    "version": "0.8.20+commit.a1b79de6.Emscripten.clang"
  },
  "schemaVersion": "3.4.16",
  "updatedAt": "2025-05-13T10:55:33.837Z",
  "devdoc": {
    "kind": "dev",
    "methods": {},
    "version": 1
  },
  "userdoc": {
    "kind": "user",
    "methods": {},
    "version": 1
  }
}