{
  "contractName": "ProductRequest",
  "abi": [
    {
      "anonymous": false,
      "inputs": [
        {
          "indexed": true,
          "internalType": "uint256",
          "name": "requestId",
          "type": "uint256"
        }
      ],
      "name": "RequestCompleted",
      "type": "event"
    },
    {
      "anonymous": false,
      "inputs": [
        {
          "indexed": true,
          "internalType": "uint256",
          "name": "requestId",
          "type": "uint256"
        },
        {
          "indexed": true,
          "internalType": "address",
          "name": "requester",
          "type": "address"
        },
        {
          "indexed": false,
          "internalType": "string",
          "name": "productName",
          "type": "string"
        }
      ],
      "name": "RequestCreated",
      "type": "event"
    },
    {
      "anonymous": false,
      "inputs": [
        {
          "indexed": true,
          "internalType": "uint256",
          "name": "requestId",
          "type": "uint256"
        },
        {
          "indexed": false,
          "internalType": "string",
          "name": "newStatus",
          "type": "string"
        }
      ],
      "name": "RequestStatusUpdated",
      "type": "event"
    },
    {
      "inputs": [
        {
          "internalType": "string",
          "name": "_productName",
          "type": "string"
        },
        {
          "internalType": "uint256",
          "name": "_quantity",
          "type": "uint256"
        },
        {
          "internalType": "string",
          "name": "_unit",
          "type": "string"
        },
        {
          "internalType": "uint256",
          "name": "_deadline",
          "type": "uint256"
        }
      ],
      "name": "createRequest",
      "outputs": [
        {
          "internalType": "uint256",
          "name": "",
          "type": "uint256"
        }
      ],
      "stateMutability": "nonpayable",
      "type": "function"
    },
    {
      "inputs": [
        {
          "internalType": "uint256",
          "name": "_requestId",
          "type": "uint256"
        },
        {
          "internalType": "string",
          "name": "_newStatus",
          "type": "string"
        }
      ],
      "name": "updateRequestStatus",
      "outputs": [],
      "stateMutability": "nonpayable",
      "type": "function"
    },
    {
      "inputs": [
        {
          "internalType": "uint256",
          "name": "_requestId",
          "type": "uint256"
        }
      ],
      "name": "getRequest",
      "outputs": [
        {
          "internalType": "uint256",
          "name": "requestId",
          "type": "uint256"
        },
        {
          "internalType": "address",
          "name": "requester",
          "type": "address"
        },
        {
          "internalType": "string",
          "name": "productName",
          "type": "string"
        },
        {
          "internalType": "uint256",
          "name": "quantity",
          "type": "uint256"
        },
        {
          "internalType": "string",
          "name": "unit",
          "type": "string"
        },
        {
          "internalType": "uint256",
          "name": "deadline",
          "type": "uint256"
        },
        {
          "internalType": "string",
          "name": "status",
          "type": "string"
        },
        {
          "internalType": "uint256",
          "name": "createdAt",
          "type": "uint256"
        },
        {
          "internalType": "uint256",
          "name": "updatedAt",
          "type": "uint256"
        }
      ],
      "stateMutability": "view",
      "type": "function"
    },
    {
      "inputs": [
        {
          "internalType": "address",
          "name": "_user",
          "type": "address"
        }
      ],
      "name": "getUserRequests",
      "outputs": [
        {
          "internalType": "uint256[]",
          "name": "",
          "type": "uint256[]"
        }
      ],
      "stateMutability": "view",
      "type": "function"
    }
  ],
  "bytecode": "0x608060405234801561000f575f80fd5b506115808061001d5f395ff3fe608060405234801561000f575f80fd5b506004361061004a575f3560e01c80635065b5e01461004e5780638a9b44221461006a578063b337cf741461009a578063c58343ef146100ca575b5f80fd5b61006860048036038101906100639190610baf565b610102565b005b610084600480360381019061007f9190610c09565b61035c565b6040516100919190610cb4565b60405180910390f35b6100b460048036038101906100af9190610d27565b610696565b6040516100c19190610e09565b60405180910390f35b6100e460048036038101906100df9190610e29565b610729565b6040516100f999989796959493929190610edd565b60405180910390f35b815f60015f8381526020019081526020015f205f015403610158576040517f08c379a000000000000000000000000000000000000000000000000000000000815260040161014f90610fc7565b60405180910390fd5b5f60015f8581526020019081526020015f2090506040518060400160405280600881526020017f414343455054454400000000000000000000000000000000000000000000000081525080519060200120838051906020012014806101ff57506040518060400160405280600881526020017f52454a4543544544000000000000000000000000000000000000000000000000815250805190602001208380519060200120145b8061024c57506040518060400160405280600981526020017f434f4d504c455445440000000000000000000000000000000000000000000000815250805190602001208380519060200120145b61028b576040517f08c379a00000000000000000000000000000000000000000000000000000000081526004016102829061102f565b60405180910390fd5b8281600601908161029c9190611247565b50428160080181905550837f920ecb3a9d71c634312c73afc498939df0205a3aa92b067b88a31434537cf55f846040516102d69190611316565b60405180910390a26040518060400160405280600981526020017f434f4d504c4554454400000000000000000000000000000000000000000000008152508051906020012083805190602001200361035657837fb26fe08e4e51c01e5cffff5f4887249599779aa0d4f8636ff4e7cd4831b495ed60405160405180910390a25b50505050565b5f808551116103a0576040517f08c379a000000000000000000000000000000000000000000000000000000000815260040161039790611380565b60405180910390fd5b5f84116103e2576040517f08c379a00000000000000000000000000000000000000000000000000000000081526004016103d9906113e8565b60405180910390fd5b5f835111610425576040517f08c379a000000000000000000000000000000000000000000000000000000000815260040161041c90611450565b60405180910390fd5b428211610467576040517f08c379a000000000000000000000000000000000000000000000000000000000815260040161045e906114b8565b60405180910390fd5b5f8081548092919061047890611503565b91905055505f805490506040518061012001604052808281526020013373ffffffffffffffffffffffffffffffffffffffff1681526020018781526020018681526020018581526020018481526020016040518060400160405280600781526020017f50454e44494e470000000000000000000000000000000000000000000000000081525081526020014281526020014281525060015f8381526020019081526020015f205f820151815f01556020820151816001015f6101000a81548173ffffffffffffffffffffffffffffffffffffffff021916908373ffffffffffffffffffffffffffffffffffffffff16021790555060408201518160020190816105819190611247565b506060820151816003015560808201518160040190816105a19190611247565b5060a0820151816005015560c08201518160060190816105c19190611247565b5060e08201518160070155610100820151816008015590505060025f3373ffffffffffffffffffffffffffffffffffffffff1673ffffffffffffffffffffffffffffffffffffffff1681526020019081526020015f2081908060018154018082558091505060019003905f5260205f20015f90919091909150553373ffffffffffffffffffffffffffffffffffffffff16817f98211bd435874dca36f94fe4bd56dc2d934b75c5c6bcab9f7e7b079addc48b4e886040516106829190611316565b60405180910390a380915050949350505050565b606060025f8373ffffffffffffffffffffffffffffffffffffffff1673ffffffffffffffffffffffffffffffffffffffff1681526020019081526020015f2080548060200260200160405190810160405280929190818152602001828054801561071d57602002820191905f5260205f20905b815481526020019060010190808311610709575b50505050509050919050565b5f8060605f60605f60605f80895f60015f8381526020019081526020015f205f01540361078b576040517f08c379a000000000000000000000000000000000000000000000000000000000815260040161078290610fc7565b60405180910390fd5b5f60015f8d81526020019081526020015f20604051806101200160405290815f8201548152602001600182015f9054906101000a900473ffffffffffffffffffffffffffffffffffffffff1673ffffffffffffffffffffffffffffffffffffffff1673ffffffffffffffffffffffffffffffffffffffff1681526020016002820180546108179061107a565b80601f01602080910402602001604051908101604052809291908181526020018280546108439061107a565b801561088e5780601f106108655761010080835404028352916020019161088e565b820191905f5260205f20905b81548152906001019060200180831161087157829003601f168201915b50505050508152602001600382015481526020016004820180546108b19061107a565b80601f01602080910402602001604051908101604052809291908181526020018280546108dd9061107a565b80156109285780601f106108ff57610100808354040283529160200191610928565b820191905f5260205f20905b81548152906001019060200180831161090b57829003601f168201915b505050505081526020016005820154815260200160068201805461094b9061107a565b80601f01602080910402602001604051908101604052809291908181526020018280546109779061107a565b80156109c25780601f10610999576101008083540402835291602001916109c2565b820191905f5260205f20905b8154815290600101906020018083116109a557829003601f168201915b50505050508152602001600782015481526020016008820154815250509050805f015181602001518260400151836060015184608001518560a001518660c001518760e001518861010001519a509a509a509a509a509a509a509a509a5050509193959799909294969850565b5f604051905090565b5f80fd5b5f80fd5b5f819050919050565b610a5281610a40565b8114610a5c575f80fd5b50565b5f81359050610a6d81610a49565b92915050565b5f80fd5b5f80fd5b5f601f19601f8301169050919050565b7f4e487b71000000000000000000000000000000000000000000000000000000005f52604160045260245ffd5b610ac182610a7b565b810181811067ffffffffffffffff82111715610ae057610adf610a8b565b5b80604052505050565b5f610af2610a2f565b9050610afe8282610ab8565b919050565b5f67ffffffffffffffff821115610b1d57610b1c610a8b565b5b610b2682610a7b565b9050602081019050919050565b828183375f83830152505050565b5f610b53610b4e84610b03565b610ae9565b905082815260208101848484011115610b6f57610b6e610a77565b5b610b7a848285610b33565b509392505050565b5f82601f830112610b9657610b95610a73565b5b8135610ba6848260208601610b41565b91505092915050565b5f8060408385031215610bc557610bc4610a38565b5b5f610bd285828601610a5f565b925050602083013567ffffffffffffffff811115610bf357610bf2610a3c565b5b610bff85828601610b82565b9150509250929050565b5f805f8060808587031215610c2157610c20610a38565b5b5f85013567ffffffffffffffff811115610c3e57610c3d610a3c565b5b610c4a87828801610b82565b9450506020610c5b87828801610a5f565b935050604085013567ffffffffffffffff811115610c7c57610c7b610a3c565b5b610c8887828801610b82565b9250506060610c9987828801610a5f565b91505092959194509250565b610cae81610a40565b82525050565b5f602082019050610cc75f830184610ca5565b92915050565b5f73ffffffffffffffffffffffffffffffffffffffff82169050919050565b5f610cf682610ccd565b9050919050565b610d0681610cec565b8114610d10575f80fd5b50565b5f81359050610d2181610cfd565b92915050565b5f60208284031215610d3c57610d3b610a38565b5b5f610d4984828501610d13565b91505092915050565b5f81519050919050565b5f82825260208201905092915050565b5f819050602082019050919050565b610d8481610a40565b82525050565b5f610d958383610d7b565b60208301905092915050565b5f602082019050919050565b5f610db782610d52565b610dc18185610d5c565b9350610dcc83610d6c565b805f5b83811015610dfc578151610de38882610d8a565b9750610dee83610da1565b925050600181019050610dcf565b5085935050505092915050565b5f6020820190508181035f830152610e218184610dad565b905092915050565b5f60208284031215610e3e57610e3d610a38565b5b5f610e4b84828501610a5f565b91505092915050565b610e5d81610cec565b82525050565b5f81519050919050565b5f82825260208201905092915050565b5f5b83811015610e9a578082015181840152602081019050610e7f565b5f8484015250505050565b5f610eaf82610e63565b610eb98185610e6d565b9350610ec9818560208601610e7d565b610ed281610a7b565b840191505092915050565b5f61012082019050610ef15f83018c610ca5565b610efe602083018b610e54565b8181036040830152610f10818a610ea5565b9050610f1f6060830189610ca5565b8181036080830152610f318188610ea5565b9050610f4060a0830187610ca5565b81810360c0830152610f528186610ea5565b9050610f6160e0830185610ca5565b610f6f610100830184610ca5565b9a9950505050505050505050565b7f5265717565737420646f6573206e6f74206578697374000000000000000000005f82015250565b5f610fb1601683610e6d565b9150610fbc82610f7d565b602082019050919050565b5f6020820190508181035f830152610fde81610fa5565b9050919050565b7f496e76616c6964207374617475730000000000000000000000000000000000005f82015250565b5f611019600e83610e6d565b915061102482610fe5565b602082019050919050565b5f6020820190508181035f8301526110468161100d565b9050919050565b7f4e487b71000000000000000000000000000000000000000000000000000000005f52602260045260245ffd5b5f600282049050600182168061109157607f821691505b6020821081036110a4576110a361104d565b5b50919050565b5f819050815f5260205f209050919050565b5f6020601f8301049050919050565b5f82821b905092915050565b5f600883026111067fffffffffffffffffffffffffffffffffffffffffffffffffffffffffffffffff826110cb565b61111086836110cb565b95508019841693508086168417925050509392505050565b5f819050919050565b5f61114b61114661114184610a40565b611128565b610a40565b9050919050565b5f819050919050565b61116483611131565b61117861117082611152565b8484546110d7565b825550505050565b5f90565b61118c611180565b61119781848461115b565b505050565b5b818110156111ba576111af5f82611184565b60018101905061119d565b5050565b601f8211156111ff576111d0816110aa565b6111d9846110bc565b810160208510156111e8578190505b6111fc6111f4856110bc565b83018261119c565b50505b505050565b5f82821c905092915050565b5f61121f5f1984600802611204565b1980831691505092915050565b5f6112378383611210565b9150826002028217905092915050565b61125082610e63565b67ffffffffffffffff81111561126957611268610a8b565b5b611273825461107a565b61127e8282856111be565b5f60209050601f8311600181146112af575f841561129d578287015190505b6112a7858261122c565b86555061130e565b601f1984166112bd866110aa565b5f5b828110156112e4578489015182556001820191506020850194506020810190506112bf565b8683101561130157848901516112fd601f891682611210565b8355505b6001600288020188555050505b505050505050565b5f6020820190508181035f83015261132e8184610ea5565b905092915050565b7f50726f64756374206e616d652063616e6e6f7420626520656d707479000000005f82015250565b5f61136a601c83610e6d565b915061137582611336565b602082019050919050565b5f6020820190508181035f8301526113978161135e565b9050919050565b7f5175616e74697479206d7573742062652067726561746572207468616e2030005f82015250565b5f6113d2601f83610e6d565b91506113dd8261139e565b602082019050919050565b5f6020820190508181035f8301526113ff816113c6565b9050919050565b7f556e69742063616e6e6f7420626520656d7074790000000000000000000000005f82015250565b5f61143a601483610e6d565b915061144582611406565b602082019050919050565b5f6020820190508181035f8301526114678161142e565b9050919050565b7f446561646c696e65206d75737420626520696e207468652066757475726500005f82015250565b5f6114a2601e83610e6d565b91506114ad8261146e565b602082019050919050565b5f6020820190508181035f8301526114cf81611496565b9050919050565b7f4e487b71000000000000000000000000000000000000000000000000000000005f52601160045260245ffd5b5f61150d82610a40565b91507fffffffffffffffffffffffffffffffffffffffffffffffffffffffffffffffff820361153f5761153e6114d6565b5b60018201905091905056fea2646970667358221220c428563b486f85792bfd6402803e3f8b71431fd1ad46e25a0865513691be18eb64736f6c63430008140033",
  "immutableReferences": {},
  "source": "// SPDX-License-Identifier: MIT\r\npragma solidity ^0.8.0;\r\n\r\ncontract ProductRequest {\r\n    struct Request {\r\n        uint256 requestId;\r\n        address requester;\r\n        string productName;\r\n        uint256 quantity;\r\n        string unit;\r\n        uint256 deadline;\r\n        string status; // \"PENDING\", \"ACCEPTED\", \"REJECTED\", \"COMPLETED\"\r\n        uint256 createdAt;\r\n        uint256 updatedAt;\r\n    }\r\n\r\n    uint256 private requestCounter;\r\n    mapping(uint256 => Request) private requests;\r\n    mapping(address => uint256[]) private userRequests;\r\n\r\n    event RequestCreated(uint256 indexed requestId, address indexed requester, string productName);\r\n    event RequestStatusUpdated(uint256 indexed requestId, string newStatus);\r\n    event RequestCompleted(uint256 indexed requestId);\r\n\r\n    modifier validRequest(uint256 _requestId) {\r\n        require(requests[_requestId].requestId != 0, \"Request does not exist\");\r\n        _;\r\n    }\r\n\r\n    function createRequest(\r\n        string memory _productName,\r\n        uint256 _quantity,\r\n        string memory _unit,\r\n        uint256 _deadline\r\n    ) external returns (uint256) {\r\n        require(bytes(_productName).length > 0, \"Product name cannot be empty\");\r\n        require(_quantity > 0, \"Quantity must be greater than 0\");\r\n        require(bytes(_unit).length > 0, \"Unit cannot be empty\");\r\n        require(_deadline > block.timestamp, \"Deadline must be in the future\");\r\n\r\n        requestCounter++;\r\n        uint256 requestId = requestCounter;\r\n\r\n        requests[requestId] = Request({\r\n            requestId: requestId,\r\n            requester: msg.sender,\r\n            productName: _productName,\r\n            quantity: _quantity,\r\n            unit: _unit,\r\n            deadline: _deadline,\r\n            status: \"PENDING\",\r\n            createdAt: block.timestamp,\r\n            updatedAt: block.timestamp\r\n        });\r\n\r\n        userRequests[msg.sender].push(requestId);\r\n        emit RequestCreated(requestId, msg.sender, _productName);\r\n        return requestId;\r\n    }\r\n\r\n    function updateRequestStatus(uint256 _requestId, string memory _newStatus) \r\n        external \r\n        validRequest(_requestId) \r\n    {\r\n        Request storage request = requests[_requestId];\r\n        require(\r\n            keccak256(bytes(_newStatus)) == keccak256(bytes(\"ACCEPTED\")) ||\r\n            keccak256(bytes(_newStatus)) == keccak256(bytes(\"REJECTED\")) ||\r\n            keccak256(bytes(_newStatus)) == keccak256(bytes(\"COMPLETED\")),\r\n            \"Invalid status\"\r\n        );\r\n\r\n        request.status = _newStatus;\r\n        request.updatedAt = block.timestamp;\r\n\r\n        emit RequestStatusUpdated(_requestId, _newStatus);\r\n        \r\n        if (keccak256(bytes(_newStatus)) == keccak256(bytes(\"COMPLETED\"))) {\r\n            emit RequestCompleted(_requestId);\r\n        }\r\n    }\r\n\r\n    function getRequest(uint256 _requestId) \r\n        external \r\n        view \r\n        validRequest(_requestId) \r\n        returns (\r\n            uint256 requestId,\r\n            address requester,\r\n            string memory productName,\r\n            uint256 quantity,\r\n            string memory unit,\r\n            uint256 deadline,\r\n            string memory status,\r\n            uint256 createdAt,\r\n            uint256 updatedAt\r\n        ) \r\n    {\r\n        Request memory request = requests[_requestId];\r\n        return (\r\n            request.requestId,\r\n            request.requester,\r\n            request.productName,\r\n            request.quantity,\r\n            request.unit,\r\n            request.deadline,\r\n            request.status,\r\n            request.createdAt,\r\n            request.updatedAt\r\n        );\r\n    }\r\n\r\n    function getUserRequests(address _user) external view returns (uint256[] memory) {\r\n        return userRequests[_user];\r\n    }\r\n} ",
  "sourcePath": "/app/contracts/ProductRequest.sol",
  "compiler": {
    "name": "solc",
    "version": "0.8.20+commit.a1b79de6.Emscripten.clang"
  },
  "schemaVersion": "3.4.16",
  "updatedAt": "2025-05-15T14:48:05.656Z",
  "devdoc": {
    "kind": "dev",
    "methods": {},
    "version": 1
  },
  "userdoc": {
    "kind": "user",
    "methods": {},
    "version": 1
  }
}