{
  "contractName": "UserRegistry",
  "abi": [
    {
      "anonymous": false,
      "inputs": [
        {
          "indexed": true,
          "internalType": "address",
          "name": "userAddress",
          "type": "address"
        }
      ],
      "name": "UserDeactivated",
      "type": "event"
    },
    {
      "anonymous": false,
      "inputs": [
        {
          "indexed": true,
          "internalType": "address",
          "name": "userAddress",
          "type": "address"
        },
        {
          "indexed": false,
          "internalType": "string",
          "name": "name",
          "type": "string"
        },
        {
          "indexed": false,
          "internalType": "string",
          "name": "role",
          "type": "string"
        }
      ],
      "name": "UserRegistered",
      "type": "event"
    },
    {
      "anonymous": false,
      "inputs": [
        {
          "indexed": true,
          "internalType": "address",
          "name": "userAddress",
          "type": "address"
        },
        {
          "indexed": false,
          "internalType": "string",
          "name": "name",
          "type": "string"
        },
        {
          "indexed": false,
          "internalType": "string",
          "name": "role",
          "type": "string"
        }
      ],
      "name": "UserUpdated",
      "type": "event"
    },
    {
      "inputs": [
        {
          "internalType": "string",
          "name": "_name",
          "type": "string"
        },
        {
          "internalType": "string",
          "name": "_email",
          "type": "string"
        },
        {
          "internalType": "string",
          "name": "_role",
          "type": "string"
        }
      ],
      "name": "registerUser",
      "outputs": [],
      "stateMutability": "nonpayable",
      "type": "function"
    },
    {
      "inputs": [
        {
          "internalType": "string",
          "name": "_name",
          "type": "string"
        },
        {
          "internalType": "string",
          "name": "_email",
          "type": "string"
        },
        {
          "internalType": "string",
          "name": "_role",
          "type": "string"
        }
      ],
      "name": "updateUser",
      "outputs": [],
      "stateMutability": "nonpayable",
      "type": "function"
    },
    {
      "inputs": [],
      "name": "deactivateUser",
      "outputs": [],
      "stateMutability": "nonpayable",
      "type": "function"
    },
    {
      "inputs": [
        {
          "internalType": "address",
          "name": "_userAddress",
          "type": "address"
        }
      ],
      "name": "getUser",
      "outputs": [
        {
          "internalType": "string",
          "name": "name",
          "type": "string"
        },
        {
          "internalType": "string",
          "name": "email",
          "type": "string"
        },
        {
          "internalType": "string",
          "name": "role",
          "type": "string"
        },
        {
          "internalType": "bool",
          "name": "isActive",
          "type": "bool"
        },
        {
          "internalType": "uint256",
          "name": "registrationDate",
          "type": "uint256"
        }
      ],
      "stateMutability": "view",
      "type": "function"
    },
    {
      "inputs": [
        {
          "internalType": "address",
          "name": "_userAddress",
          "type": "address"
        }
      ],
      "name": "isUserRegistered",
      "outputs": [
        {
          "internalType": "bool",
          "name": "",
          "type": "bool"
        }
      ],
      "stateMutability": "view",
      "type": "function"
    }
  ],
  "bytecode": "0x608060405234801561000f575f80fd5b506114a38061001d5f395ff3fe608060405234801561000f575f80fd5b5060043610610055575f3560e01c8063163f75221461005957806355ea20001461008957806360903be6146100935780636f77926b146100af578063d637dcfa146100e3575b5f80fd5b610073600480360381019061006e9190610b61565b6100ff565b6040516100809190610ba6565b60405180910390f35b610091610151565b005b6100ad60048036038101906100a89190610cfb565b610300565b005b6100c960048036038101906100c49190610b61565b61054f565b6040516100da959493929190610e31565b60405180910390f35b6100fd60048036038101906100f89190610cfb565b610828565b005b5f60015f8373ffffffffffffffffffffffffffffffffffffffff1673ffffffffffffffffffffffffffffffffffffffff1681526020019081526020015f205f9054906101000a900460ff169050919050565b60015f3373ffffffffffffffffffffffffffffffffffffffff1673ffffffffffffffffffffffffffffffffffffffff1681526020019081526020015f205f9054906101000a900460ff166101da576040517f08c379a00000000000000000000000000000000000000000000000000000000081526004016101d190610ee1565b60405180910390fd5b5f803373ffffffffffffffffffffffffffffffffffffffff1673ffffffffffffffffffffffffffffffffffffffff1681526020019081526020015f206003015f9054906101000a900460ff16610265576040517f08c379a000000000000000000000000000000000000000000000000000000000815260040161025c90610f49565b60405180910390fd5b5f805f3373ffffffffffffffffffffffffffffffffffffffff1673ffffffffffffffffffffffffffffffffffffffff1681526020019081526020015f206003015f6101000a81548160ff0219169083151502179055503373ffffffffffffffffffffffffffffffffffffffff167f5554feec4e87bc4eba14bd62f71df68156f97d26128616fbc27d28e33b35a6b460405160405180910390a2565b60015f3373ffffffffffffffffffffffffffffffffffffffff1673ffffffffffffffffffffffffffffffffffffffff1681526020019081526020015f205f9054906101000a900460ff16610389576040517f08c379a000000000000000000000000000000000000000000000000000000000815260040161038090610ee1565b60405180910390fd5b5f803373ffffffffffffffffffffffffffffffffffffffff1673ffffffffffffffffffffffffffffffffffffffff1681526020019081526020015f206003015f9054906101000a900460ff16610414576040517f08c379a000000000000000000000000000000000000000000000000000000000815260040161040b90610fb1565b60405180910390fd5b825f803373ffffffffffffffffffffffffffffffffffffffff1673ffffffffffffffffffffffffffffffffffffffff1681526020019081526020015f205f01908161045f91906111c9565b50815f803373ffffffffffffffffffffffffffffffffffffffff1673ffffffffffffffffffffffffffffffffffffffff1681526020019081526020015f2060010190816104ac91906111c9565b50805f803373ffffffffffffffffffffffffffffffffffffffff1673ffffffffffffffffffffffffffffffffffffffff1681526020019081526020015f2060020190816104f991906111c9565b503373ffffffffffffffffffffffffffffffffffffffff167fe5d18d6612696bff7df1db8015eac613241613297fa2ba2783993e4fd0e76f3d8483604051610542929190611298565b60405180910390a2505050565b60608060605f8060015f8773ffffffffffffffffffffffffffffffffffffffff1673ffffffffffffffffffffffffffffffffffffffff1681526020019081526020015f205f9054906101000a900460ff166105df576040517f08c379a00000000000000000000000000000000000000000000000000000000081526004016105d690610ee1565b60405180910390fd5b5f805f8873ffffffffffffffffffffffffffffffffffffffff1673ffffffffffffffffffffffffffffffffffffffff1681526020019081526020015f206040518060a00160405290815f8201805461063690610ffc565b80601f016020809104026020016040519081016040528092919081815260200182805461066290610ffc565b80156106ad5780601f10610684576101008083540402835291602001916106ad565b820191905f5260205f20905b81548152906001019060200180831161069057829003601f168201915b505050505081526020016001820180546106c690610ffc565b80601f01602080910402602001604051908101604052809291908181526020018280546106f290610ffc565b801561073d5780601f106107145761010080835404028352916020019161073d565b820191905f5260205f20905b81548152906001019060200180831161072057829003601f168201915b5050505050815260200160028201805461075690610ffc565b80601f016020809104026020016040519081016040528092919081815260200182805461078290610ffc565b80156107cd5780601f106107a4576101008083540402835291602001916107cd565b820191905f5260205f20905b8154815290600101906020018083116107b057829003601f168201915b50505050508152602001600382015f9054906101000a900460ff161515151581526020016004820154815250509050805f01518160200151826040015183606001518460800151955095509550955095505091939590929450565b60015f3373ffffffffffffffffffffffffffffffffffffffff1673ffffffffffffffffffffffffffffffffffffffff1681526020019081526020015f205f9054906101000a900460ff16156108b2576040517f08c379a00000000000000000000000000000000000000000000000000000000081526004016108a990611317565b60405180910390fd5b5f8351116108f5576040517f08c379a00000000000000000000000000000000000000000000000000000000081526004016108ec9061137f565b60405180910390fd5b5f825111610938576040517f08c379a000000000000000000000000000000000000000000000000000000000815260040161092f906113e7565b60405180910390fd5b5f81511161097b576040517f08c379a00000000000000000000000000000000000000000000000000000000081526004016109729061144f565b60405180910390fd5b6040518060a00160405280848152602001838152602001828152602001600115158152602001428152505f803373ffffffffffffffffffffffffffffffffffffffff1673ffffffffffffffffffffffffffffffffffffffff1681526020019081526020015f205f820151815f0190816109f491906111c9565b506020820151816001019081610a0a91906111c9565b506040820151816002019081610a2091906111c9565b506060820151816003015f6101000a81548160ff021916908315150217905550608082015181600401559050506001805f3373ffffffffffffffffffffffffffffffffffffffff1673ffffffffffffffffffffffffffffffffffffffff1681526020019081526020015f205f6101000a81548160ff0219169083151502179055503373ffffffffffffffffffffffffffffffffffffffff167f92822564bab8864c3a47b34e8d23fbce5c46234eb5da261f94087b995ac0f33b8483604051610ae9929190611298565b60405180910390a2505050565b5f604051905090565b5f80fd5b5f80fd5b5f73ffffffffffffffffffffffffffffffffffffffff82169050919050565b5f610b3082610b07565b9050919050565b610b4081610b26565b8114610b4a575f80fd5b50565b5f81359050610b5b81610b37565b92915050565b5f60208284031215610b7657610b75610aff565b5b5f610b8384828501610b4d565b91505092915050565b5f8115159050919050565b610ba081610b8c565b82525050565b5f602082019050610bb95f830184610b97565b92915050565b5f80fd5b5f80fd5b5f601f19601f8301169050919050565b7f4e487b71000000000000000000000000000000000000000000000000000000005f52604160045260245ffd5b610c0d82610bc7565b810181811067ffffffffffffffff82111715610c2c57610c2b610bd7565b5b80604052505050565b5f610c3e610af6565b9050610c4a8282610c04565b919050565b5f67ffffffffffffffff821115610c6957610c68610bd7565b5b610c7282610bc7565b9050602081019050919050565b828183375f83830152505050565b5f610c9f610c9a84610c4f565b610c35565b905082815260208101848484011115610cbb57610cba610bc3565b5b610cc6848285610c7f565b509392505050565b5f82601f830112610ce257610ce1610bbf565b5b8135610cf2848260208601610c8d565b91505092915050565b5f805f60608486031215610d1257610d11610aff565b5b5f84013567ffffffffffffffff811115610d2f57610d2e610b03565b5b610d3b86828701610cce565b935050602084013567ffffffffffffffff811115610d5c57610d5b610b03565b5b610d6886828701610cce565b925050604084013567ffffffffffffffff811115610d8957610d88610b03565b5b610d9586828701610cce565b9150509250925092565b5f81519050919050565b5f82825260208201905092915050565b5f5b83811015610dd6578082015181840152602081019050610dbb565b5f8484015250505050565b5f610deb82610d9f565b610df58185610da9565b9350610e05818560208601610db9565b610e0e81610bc7565b840191505092915050565b5f819050919050565b610e2b81610e19565b82525050565b5f60a0820190508181035f830152610e498188610de1565b90508181036020830152610e5d8187610de1565b90508181036040830152610e718186610de1565b9050610e806060830185610b97565b610e8d6080830184610e22565b9695505050505050565b7f55736572206e6f742072656769737465726564000000000000000000000000005f82015250565b5f610ecb601383610da9565b9150610ed682610e97565b602082019050919050565b5f6020820190508181035f830152610ef881610ebf565b9050919050565b7f5573657220616c726561647920646561637469766174656400000000000000005f82015250565b5f610f33601883610da9565b9150610f3e82610eff565b602082019050919050565b5f6020820190508181035f830152610f6081610f27565b9050919050565b7f55736572206973206e6f742061637469766500000000000000000000000000005f82015250565b5f610f9b601283610da9565b9150610fa682610f67565b602082019050919050565b5f6020820190508181035f830152610fc881610f8f565b9050919050565b7f4e487b71000000000000000000000000000000000000000000000000000000005f52602260045260245ffd5b5f600282049050600182168061101357607f821691505b60208210810361102657611025610fcf565b5b50919050565b5f819050815f5260205f209050919050565b5f6020601f8301049050919050565b5f82821b905092915050565b5f600883026110887fffffffffffffffffffffffffffffffffffffffffffffffffffffffffffffffff8261104d565b611092868361104d565b95508019841693508086168417925050509392505050565b5f819050919050565b5f6110cd6110c86110c384610e19565b6110aa565b610e19565b9050919050565b5f819050919050565b6110e6836110b3565b6110fa6110f2826110d4565b848454611059565b825550505050565b5f90565b61110e611102565b6111198184846110dd565b505050565b5b8181101561113c576111315f82611106565b60018101905061111f565b5050565b601f821115611181576111528161102c565b61115b8461103e565b8101602085101561116a578190505b61117e6111768561103e565b83018261111e565b50505b505050565b5f82821c905092915050565b5f6111a15f1984600802611186565b1980831691505092915050565b5f6111b98383611192565b9150826002028217905092915050565b6111d282610d9f565b67ffffffffffffffff8111156111eb576111ea610bd7565b5b6111f58254610ffc565b611200828285611140565b5f60209050601f831160018114611231575f841561121f578287015190505b61122985826111ae565b865550611290565b601f19841661123f8661102c565b5f5b8281101561126657848901518255600182019150602085019450602081019050611241565b86831015611283578489015161127f601f891682611192565b8355505b6001600288020188555050505b505050505050565b5f6040820190508181035f8301526112b08185610de1565b905081810360208301526112c48184610de1565b90509392505050565b7f5573657220616c726561647920726567697374657265640000000000000000005f82015250565b5f611301601783610da9565b915061130c826112cd565b602082019050919050565b5f6020820190508181035f83015261132e816112f5565b9050919050565b7f4e616d652063616e6e6f7420626520656d7074790000000000000000000000005f82015250565b5f611369601483610da9565b915061137482611335565b602082019050919050565b5f6020820190508181035f8301526113968161135d565b9050919050565b7f456d61696c2063616e6e6f7420626520656d70747900000000000000000000005f82015250565b5f6113d1601583610da9565b91506113dc8261139d565b602082019050919050565b5f6020820190508181035f8301526113fe816113c5565b9050919050565b7f526f6c652063616e6e6f7420626520656d7074790000000000000000000000005f82015250565b5f611439601483610da9565b915061144482611405565b602082019050919050565b5f6020820190508181035f8301526114668161142d565b905091905056fea2646970667358221220654361e1b87325ca6342e9d529a79548d4a3856c74b6b307f489853b62e30c1d64736f6c63430008140033",
  "immutableReferences": {},
  "source": "// SPDX-License-Identifier: MIT\r\npragma solidity ^0.8.0;\r\n\r\ncontract UserRegistry {\r\n    struct User {\r\n        string name;\r\n        string email;\r\n        string role; // \"PRODUCER\", \"DISTRIBUTOR\", \"RETAILER\", \"CONSUMER\"\r\n        bool isActive;\r\n        uint256 registrationDate;\r\n    }\r\n\r\n    mapping(address => User) private users;\r\n    mapping(address => bool) private isRegistered;\r\n\r\n    event UserRegistered(address indexed userAddress, string name, string role);\r\n    event UserUpdated(address indexed userAddress, string name, string role);\r\n    event UserDeactivated(address indexed userAddress);\r\n\r\n    modifier onlyRegistered() {\r\n        require(isRegistered[msg.sender], \"User not registered\");\r\n        _;\r\n    }\r\n\r\n    function registerUser(\r\n        string memory _name,\r\n        string memory _email,\r\n        string memory _role\r\n    ) external {\r\n        require(!isRegistered[msg.sender], \"User already registered\");\r\n        require(bytes(_name).length > 0, \"Name cannot be empty\");\r\n        require(bytes(_email).length > 0, \"Email cannot be empty\");\r\n        require(bytes(_role).length > 0, \"Role cannot be empty\");\r\n\r\n        users[msg.sender] = User({\r\n            name: _name,\r\n            email: _email,\r\n            role: _role,\r\n            isActive: true,\r\n            registrationDate: block.timestamp\r\n        });\r\n\r\n        isRegistered[msg.sender] = true;\r\n        emit UserRegistered(msg.sender, _name, _role);\r\n    }\r\n\r\n    function updateUser(\r\n        string memory _name,\r\n        string memory _email,\r\n        string memory _role\r\n    ) external onlyRegistered {\r\n        require(users[msg.sender].isActive, \"User is not active\");\r\n        \r\n        users[msg.sender].name = _name;\r\n        users[msg.sender].email = _email;\r\n        users[msg.sender].role = _role;\r\n\r\n        emit UserUpdated(msg.sender, _name, _role);\r\n    }\r\n\r\n    function deactivateUser() external onlyRegistered {\r\n        require(users[msg.sender].isActive, \"User already deactivated\");\r\n        users[msg.sender].isActive = false;\r\n        emit UserDeactivated(msg.sender);\r\n    }\r\n\r\n    function getUser(address _userAddress) external view returns (\r\n        string memory name,\r\n        string memory email,\r\n        string memory role,\r\n        bool isActive,\r\n        uint256 registrationDate\r\n    ) {\r\n        require(isRegistered[_userAddress], \"User not registered\");\r\n        User memory user = users[_userAddress];\r\n        return (user.name, user.email, user.role, user.isActive, user.registrationDate);\r\n    }\r\n\r\n    function isUserRegistered(address _userAddress) external view returns (bool) {\r\n        return isRegistered[_userAddress];\r\n    }\r\n} ",
  "sourcePath": "/app/contracts/UserRegistry.sol",
  "compiler": {
    "name": "solc",
    "version": "0.8.20+commit.a1b79de6.Emscripten.clang"
  },
  "schemaVersion": "3.4.16",
  "updatedAt": "2025-05-15T14:48:05.853Z",
  "devdoc": {
    "kind": "dev",
    "methods": {},
    "version": 1
  },
  "userdoc": {
    "kind": "user",
    "methods": {},
    "version": 1
  }
}