{
  "_format": "hh-sol-artifact-1",
  "contractName": "QualityControl",
  "sourceName": "contracts/QualityControl.sol",
  "abi": [
    {
      "anonymous": false,
      "inputs": [
        {
          "indexed": true,
          "internalType": "uint256",
          "name": "checkId",
          "type": "uint256"
        }
      ],
      "name": "QualityCheckCompleted",
      "type": "event"
    },
    {
      "anonymous": false,
      "inputs": [
        {
          "indexed": true,
          "internalType": "uint256",
          "name": "checkId",
          "type": "uint256"
        },
        {
          "indexed": true,
          "internalType": "uint256",
          "name": "productId",
          "type": "uint256"
        },
        {
          "indexed": true,
          "internalType": "address",
          "name": "inspector",
          "type": "address"
        }
      ],
      "name": "QualityCheckCreated",
      "type": "event"
    },
    {
      "anonymous": false,
      "inputs": [
        {
          "indexed": true,
          "internalType": "uint256",
          "name": "checkId",
          "type": "uint256"
        },
        {
          "indexed": false,
          "internalType": "string",
          "name": "result",
          "type": "string"
        }
      ],
      "name": "QualityCheckUpdated",
      "type": "event"
    },
    {
      "inputs": [
        {
          "internalType": "uint256",
          "name": "_productId",
          "type": "uint256"
        },
        {
          "internalType": "string",
          "name": "_checkType",
          "type": "string"
        },
        {
          "internalType": "string",
          "name": "_details",
          "type": "string"
        },
        {
          "internalType": "string",
          "name": "_metadata",
          "type": "string"
        }
      ],
      "name": "createQualityCheck",
      "outputs": [
        {
          "internalType": "uint256",
          "name": "",
          "type": "uint256"
        }
      ],
      "stateMutability": "nonpayable",
      "type": "function"
    },
    {
      "inputs": [
        {
          "internalType": "address",
          "name": "_inspector",
          "type": "address"
        }
      ],
      "name": "getInspectorQualityChecks",
      "outputs": [
        {
          "internalType": "uint256[]",
          "name": "",
          "type": "uint256[]"
        }
      ],
      "stateMutability": "view",
      "type": "function"
    },
    {
      "inputs": [
        {
          "internalType": "uint256",
          "name": "_productId",
          "type": "uint256"
        }
      ],
      "name": "getProductQualityChecks",
      "outputs": [
        {
          "internalType": "uint256[]",
          "name": "",
          "type": "uint256[]"
        }
      ],
      "stateMutability": "view",
      "type": "function"
    },
    {
      "inputs": [
        {
          "internalType": "uint256",
          "name": "_checkId",
          "type": "uint256"
        }
      ],
      "name": "getQualityCheck",
      "outputs": [
        {
          "internalType": "uint256",
          "name": "checkId",
          "type": "uint256"
        },
        {
          "internalType": "uint256",
          "name": "productId",
          "type": "uint256"
        },
        {
          "internalType": "address",
          "name": "inspector",
          "type": "address"
        },
        {
          "internalType": "string",
          "name": "checkType",
          "type": "string"
        },
        {
          "internalType": "string",
          "name": "result",
          "type": "string"
        },
        {
          "internalType": "string",
          "name": "details",
          "type": "string"
        },
        {
          "internalType": "uint256",
          "name": "timestamp",
          "type": "uint256"
        },
        {
          "internalType": "string",
          "name": "metadata",
          "type": "string"
        }
      ],
      "stateMutability": "view",
      "type": "function"
    },
    {
      "inputs": [
        {
          "internalType": "uint256",
          "name": "_checkId",
          "type": "uint256"
        },
        {
          "internalType": "string",
          "name": "_result",
          "type": "string"
        },
        {
          "internalType": "string",
          "name": "_details",
          "type": "string"
        },
        {
          "internalType": "string",
          "name": "_metadata",
          "type": "string"
        }
      ],
      "name": "updateQualityCheck",
      "outputs": [],
      "stateMutability": "nonpayable",
      "type": "function"
    }
  ],
  "bytecode": "0x608060405234801561001057600080fd5b50610e85806100206000396000f3fe608060405234801561001057600080fd5b50600436106100575760003560e01c8063536358921461005c5780635af0b9a014610085578063a194291d1461009a578063e50000bf146100ad578063fe7045ca146100ce575b600080fd5b61006f61006a366004610a45565b6100f5565b60405161007c9190610a75565b60405180910390f35b610098610093366004610b5c565b610161565b005b61006f6100a8366004610bee565b610475565b6100c06100bb366004610b5c565b6104d5565b60405190815260200161007c565b6100e16100dc366004610bee565b6106f7565b60405161007c989796959493929190610c4d565b6001600160a01b03811660009081526003602090815260409182902080548351818402810184019094528084526060939283018282801561015557602002820191906000526020600020905b815481526020019060010190808311610141575b50505050509050919050565b6000848152600160205260408120548591036101c45760405162461bcd60e51b815260206004820152601c60248201527f5175616c69747920636865636b20646f6573206e6f742065786973740000000060448201526064015b60405180910390fd5b600085815260016020526040902060028101546001600160a01b0316331461022e5760405162461bcd60e51b815260206004820152601f60248201527f4f6e6c7920696e73706563746f722063616e2075706461746520636865636b0060448201526064016101bb565b6040805180820190915260048152635041535360e01b6020918201528551908601207f8e6ec7cc8637dc1fd49b2500b930e6a646847644be08844403a4be022386f2d114806102bd57506040805180820190915260048152631190525360e21b6020918201528551908601207f104dd4d86a34f57105fb7432669e2de5fd3102fcce4e2794553e45c52904bcde145b8061030b575060408051808201909152600781526650454e44494e4760c81b6020918201528551908601207fb104c8032f8ea142398c783b53373444df26fbd5743f40221b7a8f42ae1b0bca145b6103485760405162461bcd60e51b815260206004820152600e60248201526d125b9d985b1a59081c995cdd5b1d60921b60448201526064016101bb565b600481016103568682610d55565b50600581016103658582610d55565b50600781016103748482610d55565b50857f12b4cf770205ae25c6fadea1defce15525c7a3a10aad9c28f4af0be5166542e2866040516103a59190610e15565b60405180910390a26040805180820190915260048152635041535360e01b6020918201528551908601207f8e6ec7cc8637dc1fd49b2500b930e6a646847644be08844403a4be022386f2d1148061043c57506040805180820190915260048152631190525360e21b6020918201528551908601207f104dd4d86a34f57105fb7432669e2de5fd3102fcce4e2794553e45c52904bcde145b1561046d5760405186907fb2b11f463d9e13cce92c4659379da17af5e7c9bb03df29828bb913461e617adc90600090a25b505050505050565b60008181526002602090815260409182902080548351818402810184019094528084526060939283018282801561015557602002820191906000526020600020908154815260200190600101908083116101415750505050509050919050565b6000808451116105275760405162461bcd60e51b815260206004820152601a60248201527f436865636b20747970652063616e6e6f7420626520656d70747900000000000060448201526064016101bb565b60008351116105785760405162461bcd60e51b815260206004820152601760248201527f44657461696c732063616e6e6f7420626520656d70747900000000000000000060448201526064016101bb565b60008054908061058783610e28565b909155505060008054604080516101008101825282815260208082018a815233838501908152606084018b815285518087018752600781526650454e44494e4760c81b81860152608086015260a085018b90524260c086015260e085018a9052868852600193849052949096208351815590519181019190915593516002850180546001600160a01b0319166001600160a01b0390921691909117905590519192909160038201906106399082610d55565b506080820151600482019061064e9082610d55565b5060a082015160058201906106639082610d55565b5060c0820151600682015560e082015160078201906106829082610d55565b505050600086815260026020908152604080832080546001818101835591855283852001859055338085526003845282852080549283018155855292842001849055519091889184917f912f672b97efee0c5712ee4c89e54cf34e9d3bc4d78c34ee5726f967abddf39b91a495945050505050565b600080600060608060606000606088600160008281526020019081526020016000206000015460000361076c5760405162461bcd60e51b815260206004820152601c60248201527f5175616c69747920636865636b20646f6573206e6f742065786973740000000060448201526064016101bb565b60008a815260016020818152604080842081516101008101835281548152938101549284019290925260028201546001600160a01b0316908301526003810180546060840191906107bc90610cd0565b80601f01602080910402602001604051908101604052809291908181526020018280546107e890610cd0565b80156108355780601f1061080a57610100808354040283529160200191610835565b820191906000526020600020905b81548152906001019060200180831161081857829003601f168201915b5050505050815260200160048201805461084e90610cd0565b80601f016020809104026020016040519081016040528092919081815260200182805461087a90610cd0565b80156108c75780601f1061089c576101008083540402835291602001916108c7565b820191906000526020600020905b8154815290600101906020018083116108aa57829003601f168201915b505050505081526020016005820180546108e090610cd0565b80601f016020809104026020016040519081016040528092919081815260200182805461090c90610cd0565b80156109595780601f1061092e57610100808354040283529160200191610959565b820191906000526020600020905b81548152906001019060200180831161093c57829003601f168201915b505050505081526020016006820154815260200160078201805461097c90610cd0565b80601f01602080910402602001604051908101604052809291908181526020018280546109a890610cd0565b80156109f55780601f106109ca576101008083540402835291602001916109f5565b820191906000526020600020905b8154815290600101906020018083116109d857829003601f168201915b5050505050815250509050806000015181602001518260400151836060015184608001518560a001518660c001518760e00151995099509950995099509950995099505050919395975091939597565b600060208284031215610a5757600080fd5b81356001600160a01b0381168114610a6e57600080fd5b9392505050565b6020808252825182820181905260009190848201906040850190845b81811015610aad57835183529284019291840191600101610a91565b50909695505050505050565b634e487b7160e01b600052604160045260246000fd5b600082601f830112610ae057600080fd5b813567ffffffffffffffff80821115610afb57610afb610ab9565b604051601f8301601f19908116603f01168101908282118183101715610b2357610b23610ab9565b81604052838152866020858801011115610b3c57600080fd5b836020870160208301376000602085830101528094505050505092915050565b60008060008060808587031215610b7257600080fd5b84359350602085013567ffffffffffffffff80821115610b9157600080fd5b610b9d88838901610acf565b94506040870135915080821115610bb357600080fd5b610bbf88838901610acf565b93506060870135915080821115610bd557600080fd5b50610be287828801610acf565b91505092959194509250565b600060208284031215610c0057600080fd5b5035919050565b6000815180845260005b81811015610c2d57602081850181015186830182015201610c11565b506000602082860101526020601f19601f83011685010191505092915050565b888152602081018890526001600160a01b038716604082015261010060608201819052600090610c7f83820189610c07565b90508281036080840152610c938188610c07565b905082810360a0840152610ca78187610c07565b90508460c084015282810360e0840152610cc18185610c07565b9b9a5050505050505050505050565b600181811c90821680610ce457607f821691505b602082108103610d0457634e487b7160e01b600052602260045260246000fd5b50919050565b601f821115610d5057600081815260208120601f850160051c81016020861015610d315750805b601f850160051c820191505b8181101561046d57828155600101610d3d565b505050565b815167ffffffffffffffff811115610d6f57610d6f610ab9565b610d8381610d7d8454610cd0565b84610d0a565b602080601f831160018114610db85760008415610da05750858301515b600019600386901b1c1916600185901b17855561046d565b600085815260208120601f198616915b82811015610de757888601518255948401946001909101908401610dc8565b5085821015610e055787850151600019600388901b60f8161c191681555b5050505050600190811b01905550565b602081526000610a6e6020830184610c07565b600060018201610e4857634e487b7160e01b600052601160045260246000fd5b506001019056fea26469706673582212200249a8087845324928e0ea3e013f5a2cde3b1958f74e2d773c8491a54ce11a5164736f6c63430008140033",
  "linkReferences": {},
  "deployedLinkReferences": {}
}