{
  "_format": "hh-sol-artifact-1",
  "contractName": "ProductRequest",
  "sourceName": "contracts/ProductRequest.sol",
  "abi": [
    {
      "anonymous": false,
      "inputs": [
        {
          "indexed": true,
          "internalType": "uint256",
          "name": "requestId",
          "type": "uint256"
        }
      ],
      "name": "RequestCompleted",
      "type": "event"
    },
    {
      "anonymous": false,
      "inputs": [
        {
          "indexed": true,
          "internalType": "uint256",
          "name": "requestId",
          "type": "uint256"
        },
        {
          "indexed": true,
          "internalType": "address",
          "name": "requester",
          "type": "address"
        },
        {
          "indexed": false,
          "internalType": "string",
          "name": "productName",
          "type": "string"
        }
      ],
      "name": "RequestCreated",
      "type": "event"
    },
    {
      "anonymous": false,
      "inputs": [
        {
          "indexed": true,
          "internalType": "uint256",
          "name": "requestId",
          "type": "uint256"
        },
        {
          "indexed": false,
          "internalType": "string",
          "name": "newStatus",
          "type": "string"
        }
      ],
      "name": "RequestStatusUpdated",
      "type": "event"
    },
    {
      "inputs": [
        {
          "internalType": "string",
          "name": "_productName",
          "type": "string"
        },
        {
          "internalType": "uint256",
          "name": "_quantity",
          "type": "uint256"
        },
        {
          "internalType": "string",
          "name": "_unit",
          "type": "string"
        },
        {
          "internalType": "uint256",
          "name": "_deadline",
          "type": "uint256"
        }
      ],
      "name": "createRequest",
      "outputs": [
        {
          "internalType": "uint256",
          "name": "",
          "type": "uint256"
        }
      ],
      "stateMutability": "nonpayable",
      "type": "function"
    },
    {
      "inputs": [
        {
          "internalType": "uint256",
          "name": "_requestId",
          "type": "uint256"
        }
      ],
      "name": "getRequest",
      "outputs": [
        {
          "internalType": "uint256",
          "name": "requestId",
          "type": "uint256"
        },
        {
          "internalType": "address",
          "name": "requester",
          "type": "address"
        },
        {
          "internalType": "string",
          "name": "productName",
          "type": "string"
        },
        {
          "internalType": "uint256",
          "name": "quantity",
          "type": "uint256"
        },
        {
          "internalType": "string",
          "name": "unit",
          "type": "string"
        },
        {
          "internalType": "uint256",
          "name": "deadline",
          "type": "uint256"
        },
        {
          "internalType": "string",
          "name": "status",
          "type": "string"
        },
        {
          "internalType": "uint256",
          "name": "createdAt",
          "type": "uint256"
        },
        {
          "internalType": "uint256",
          "name": "updatedAt",
          "type": "uint256"
        }
      ],
      "stateMutability": "view",
      "type": "function"
    },
    {
      "inputs": [
        {
          "internalType": "address",
          "name": "_user",
          "type": "address"
        }
      ],
      "name": "getUserRequests",
      "outputs": [
        {
          "internalType": "uint256[]",
          "name": "",
          "type": "uint256[]"
        }
      ],
      "stateMutability": "view",
      "type": "function"
    },
    {
      "inputs": [
        {
          "internalType": "uint256",
          "name": "_requestId",
          "type": "uint256"
        },
        {
          "internalType": "string",
          "name": "_newStatus",
          "type": "string"
        }
      ],
      "name": "updateRequestStatus",
      "outputs": [],
      "stateMutability": "nonpayable",
      "type": "function"
    }
  ],
  "bytecode": "0x608060405234801561001057600080fd5b50610dd0806100206000396000f3fe608060405234801561001057600080fd5b506004361061004c5760003560e01c80635065b5e0146100515780638a9b442214610066578063b337cf741461008c578063c58343ef146100ac575b600080fd5b61006461005f3660046109ee565b6100d4565b005b610079610074366004610a35565b610333565b6040519081526020015b60405180910390f35b61009f61009a366004610aaa565b61060b565b6040516100839190610ada565b6100bf6100ba366004610b1e565b610677565b60405161008399989796959493929190610b7d565b6000828152600160205260408120548391036101305760405162461bcd60e51b815260206004820152601660248201527514995c5d595cdd08191bd95cc81b9bdd08195e1a5cdd60521b60448201526064015b60405180910390fd5b600083815260016020908152604091829020825180840190935260088352671050d0d15415115160c21b928201929092528351908401207f66a524c81cf8e657f1147e56f41f83002f6210ee7ae7b08d255f786088ae96f714806101d857506040805180820190915260088152671491529150d5115160c21b6020918201528351908401207f8675c210f65c4e8dd95d2afd30eb5d846906f1b59f9da9d5ff94ec59c6c70c7c145b80610228575060408051808201909152600981526810d3d354131155115160ba1b6020918201528351908401207fa6586f17a8a5e4698239c02f8797ee31fe064badfc69974a661aa1af950d9ea6145b6102655760405162461bcd60e51b815260206004820152600e60248201526d496e76616c69642073746174757360901b6044820152606401610127565b600681016102738482610c7f565b5042600882015560405184907f920ecb3a9d71c634312c73afc498939df0205a3aa92b067b88a31434537cf55f906102ac908690610d3f565b60405180910390a260408051808201909152600981526810d3d354131155115160ba1b6020918201528351908401207f59a790e8575a1b967dc63fd0786811ce01f9b452039668b599e55e506af2615a0161032d5760405184907fb26fe08e4e51c01e5cffff5f4887249599779aa0d4f8636ff4e7cd4831b495ed90600090a25b50505050565b6000808551116103855760405162461bcd60e51b815260206004820152601c60248201527f50726f64756374206e616d652063616e6e6f7420626520656d707479000000006044820152606401610127565b600084116103d55760405162461bcd60e51b815260206004820152601f60248201527f5175616e74697479206d7573742062652067726561746572207468616e2030006044820152606401610127565b600083511161041d5760405162461bcd60e51b8152602060048201526014602482015273556e69742063616e6e6f7420626520656d70747960601b6044820152606401610127565b61042842603c610d68565b821161048f5760405162461bcd60e51b815260206004820152603060248201527f446561646c696e65206d757374206265206174206c656173742031206d696e7560448201526f746520696e207468652066757475726560801b6064820152608401610127565b60008054908061049e83610d81565b90915550506000805460408051610120810182528281523360208083019182528284018b8152606084018b9052608084018a905260a0840189905284518086018652600781526650454e44494e4760c81b8184015260c08501524260e085018190526101008501528587526001918290529390952082518155905194810180546001600160a01b0319166001600160a01b0390961695909517909455905191929091600282019061054f9082610c7f565b50606082015160038201556080820151600482019061056e9082610c7f565b5060a0820151600582015560c0820151600682019061058d9082610c7f565b5060e0820151600782015561010090910151600890910155336000818152600260209081526040808320805460018101825590845291909220018390555182907f98211bd435874dca36f94fe4bd56dc2d934b75c5c6bcab9f7e7b079addc48b4e906105fa908a90610d3f565b60405180910390a395945050505050565b6001600160a01b03811660009081526002602090815260409182902080548351818402810184019094528084526060939283018282801561066b57602002820191906000526020600020905b815481526020019060010190808311610657575b50505050509050919050565b600080606060006060600060606000808960016000828152602001908152602001600020600001546000036106e75760405162461bcd60e51b815260206004820152601660248201527514995c5d595cdd08191bd95cc81b9bdd08195e1a5cdd60521b6044820152606401610127565b60008b815260016020818152604080842081516101208101835281548152938101546001600160a01b0316928401929092526002820180549184019161072c90610bf6565b80601f016020809104026020016040519081016040528092919081815260200182805461075890610bf6565b80156107a55780601f1061077a576101008083540402835291602001916107a5565b820191906000526020600020905b81548152906001019060200180831161078857829003601f168201915b50505050508152602001600382015481526020016004820180546107c890610bf6565b80601f01602080910402602001604051908101604052809291908181526020018280546107f490610bf6565b80156108415780601f1061081657610100808354040283529160200191610841565b820191906000526020600020905b81548152906001019060200180831161082457829003601f168201915b505050505081526020016005820154815260200160068201805461086490610bf6565b80601f016020809104026020016040519081016040528092919081815260200182805461089090610bf6565b80156108dd5780601f106108b2576101008083540402835291602001916108dd565b820191906000526020600020905b8154815290600101906020018083116108c057829003601f168201915b50505050508152602001600782015481526020016008820154815250509050806000015181602001518260400151836060015184608001518560a001518660c001518760e001518861010001519a509a509a509a509a509a509a509a509a5050509193959799909294969850565b634e487b7160e01b600052604160045260246000fd5b600082601f83011261097257600080fd5b813567ffffffffffffffff8082111561098d5761098d61094b565b604051601f8301601f19908116603f011681019082821181831017156109b5576109b561094b565b816040528381528660208588010111156109ce57600080fd5b836020870160208301376000602085830101528094505050505092915050565b60008060408385031215610a0157600080fd5b82359150602083013567ffffffffffffffff811115610a1f57600080fd5b610a2b85828601610961565b9150509250929050565b60008060008060808587031215610a4b57600080fd5b843567ffffffffffffffff80821115610a6357600080fd5b610a6f88838901610961565b9550602087013594506040870135915080821115610a8c57600080fd5b50610a9987828801610961565b949793965093946060013593505050565b600060208284031215610abc57600080fd5b81356001600160a01b0381168114610ad357600080fd5b9392505050565b6020808252825182820181905260009190848201906040850190845b81811015610b1257835183529284019291840191600101610af6565b50909695505050505050565b600060208284031215610b3057600080fd5b5035919050565b6000815180845260005b81811015610b5d57602081850181015186830182015201610b41565b506000602082860101526020601f19601f83011685010191505092915050565b8981526001600160a01b038916602082015261012060408201819052600090610ba88382018b610b37565b90508860608401528281036080840152610bc28189610b37565b90508660a084015282810360c0840152610bdc8187610b37565b60e084019590955250506101000152979650505050505050565b600181811c90821680610c0a57607f821691505b602082108103610c2a57634e487b7160e01b600052602260045260246000fd5b50919050565b601f821115610c7a57600081815260208120601f850160051c81016020861015610c575750805b601f850160051c820191505b81811015610c7657828155600101610c63565b5050505b505050565b815167ffffffffffffffff811115610c9957610c9961094b565b610cad81610ca78454610bf6565b84610c30565b602080601f831160018114610ce25760008415610cca5750858301515b600019600386901b1c1916600185901b178555610c76565b600085815260208120601f198616915b82811015610d1157888601518255948401946001909101908401610cf2565b5085821015610d2f5787850151600019600388901b60f8161c191681555b5050505050600190811b01905550565b602081526000610ad36020830184610b37565b634e487b7160e01b600052601160045260246000fd5b80820180821115610d7b57610d7b610d52565b92915050565b600060018201610d9357610d93610d52565b506001019056fea26469706673582212200077400112ee13a1594715406fb0833dbab852d31c9c05d5b8a13049c29a913e64736f6c63430008140033",
  "linkReferences": {},
  "deployedLinkReferences": {}
}