{
  "_format": "hh-sol-artifact-1",
  "contractName": "OperationRegistry",
  "sourceName": "contracts/OperationRegistry.sol",
  "abi": [
    {
      "anonymous": false,
      "inputs": [
        {
          "indexed": true,
          "internalType": "uint256",
          "name": "operationId",
          "type": "uint256"
        },
        {
          "indexed": true,
          "internalType": "address",
          "name": "operator",
          "type": "address"
        },
        {
          "indexed": false,
          "internalType": "string",
          "name": "operationType",
          "type": "string"
        }
      ],
      "name": "OperationCreated",
      "type": "event"
    },
    {
      "anonymous": false,
      "inputs": [
        {
          "indexed": true,
          "internalType": "uint256",
          "name": "operationId",
          "type": "uint256"
        },
        {
          "indexed": false,
          "internalType": "string",
          "name": "metadata",
          "type": "string"
        }
      ],
      "name": "OperationMetadataUpdated",
      "type": "event"
    },
    {
      "anonymous": false,
      "inputs": [
        {
          "indexed": true,
          "internalType": "uint256",
          "name": "operationId",
          "type": "uint256"
        },
        {
          "indexed": false,
          "internalType": "string",
          "name": "newStatus",
          "type": "string"
        }
      ],
      "name": "OperationStatusUpdated",
      "type": "event"
    },
    {
      "inputs": [
        {
          "internalType": "string",
          "name": "_operationType",
          "type": "string"
        },
        {
          "internalType": "string",
          "name": "_description",
          "type": "string"
        },
        {
          "internalType": "string",
          "name": "_location",
          "type": "string"
        },
        {
          "internalType": "string",
          "name": "_metadata",
          "type": "string"
        }
      ],
      "name": "createOperation",
      "outputs": [
        {
          "internalType": "uint256",
          "name": "",
          "type": "uint256"
        }
      ],
      "stateMutability": "nonpayable",
      "type": "function"
    },
    {
      "inputs": [
        {
          "internalType": "uint256",
          "name": "_operationId",
          "type": "uint256"
        }
      ],
      "name": "getOperation",
      "outputs": [
        {
          "internalType": "uint256",
          "name": "operationId",
          "type": "uint256"
        },
        {
          "internalType": "address",
          "name": "operator",
          "type": "address"
        },
        {
          "internalType": "string",
          "name": "operationType",
          "type": "string"
        },
        {
          "internalType": "string",
          "name": "description",
          "type": "string"
        },
        {
          "internalType": "string",
          "name": "location",
          "type": "string"
        },
        {
          "internalType": "uint256",
          "name": "timestamp",
          "type": "uint256"
        },
        {
          "internalType": "string",
          "name": "status",
          "type": "string"
        },
        {
          "internalType": "string",
          "name": "metadata",
          "type": "string"
        }
      ],
      "stateMutability": "view",
      "type": "function"
    },
    {
      "inputs": [
        {
          "internalType": "address",
          "name": "_user",
          "type": "address"
        }
      ],
      "name": "getUserOperations",
      "outputs": [
        {
          "internalType": "uint256[]",
          "name": "",
          "type": "uint256[]"
        }
      ],
      "stateMutability": "view",
      "type": "function"
    },
    {
      "inputs": [
        {
          "internalType": "uint256",
          "name": "_operationId",
          "type": "uint256"
        },
        {
          "internalType": "string",
          "name": "_metadata",
          "type": "string"
        }
      ],
      "name": "updateOperationMetadata",
      "outputs": [],
      "stateMutability": "nonpayable",
      "type": "function"
    },
    {
      "inputs": [
        {
          "internalType": "uint256",
          "name": "_operationId",
          "type": "uint256"
        },
        {
          "internalType": "string",
          "name": "_newStatus",
          "type": "string"
        }
      ],
      "name": "updateOperationStatus",
      "outputs": [],
      "stateMutability": "nonpayable",
      "type": "function"
    }
  ],
  "bytecode": "0x608060405234801561001057600080fd5b50610ea0806100206000396000f3fe608060405234801561001057600080fd5b50600436106100575760003560e01c80630caa0d4b1461005c578063202e3924146100715780635fc89e7c146100a15780639bcce59d146100b4578063e2ab79b1146100d5575b600080fd5b61006f61006a366004610a59565b6100f5565b005b61008461007f366004610aa0565b610187565b604051610098989796959493929190610aff565b60405180910390f35b61006f6100af366004610a59565b61052b565b6100c76100c2366004610b8f565b6106d1565b604051908152602001610098565b6100e86100e3366004610c3c565b61094a565b6040516100989190610c6c565b60008281526001602052604081205483910361012c5760405162461bcd60e51b815260040161012390610cb0565b60405180910390fd5b6000838152600160205260409020600781016101488482610d70565b50837fdb1b9b8c0fa594db1fbffe5ea75e9e568e5e49b76910afcbd992e9b7eb61ba69846040516101799190610e30565b60405180910390a250505050565b600080606080606060006060808860016000828152602001908152602001600020600001546000036101cb5760405162461bcd60e51b815260040161012390610cb0565b60008a815260016020818152604080842081516101008101835281548152938101546001600160a01b0316928401929092526002820180549184019161021090610ce7565b80601f016020809104026020016040519081016040528092919081815260200182805461023c90610ce7565b80156102895780601f1061025e57610100808354040283529160200191610289565b820191906000526020600020905b81548152906001019060200180831161026c57829003601f168201915b505050505081526020016003820180546102a290610ce7565b80601f01602080910402602001604051908101604052809291908181526020018280546102ce90610ce7565b801561031b5780601f106102f05761010080835404028352916020019161031b565b820191906000526020600020905b8154815290600101906020018083116102fe57829003601f168201915b5050505050815260200160048201805461033490610ce7565b80601f016020809104026020016040519081016040528092919081815260200182805461036090610ce7565b80156103ad5780601f10610382576101008083540402835291602001916103ad565b820191906000526020600020905b81548152906001019060200180831161039057829003601f168201915b50505050508152602001600582015481526020016006820180546103d090610ce7565b80601f01602080910402602001604051908101604052809291908181526020018280546103fc90610ce7565b80156104495780601f1061041e57610100808354040283529160200191610449565b820191906000526020600020905b81548152906001019060200180831161042c57829003601f168201915b5050505050815260200160078201805461046290610ce7565b80601f016020809104026020016040519081016040528092919081815260200182805461048e90610ce7565b80156104db5780601f106104b0576101008083540402835291602001916104db565b820191906000526020600020905b8154815290600101906020018083116104be57829003601f168201915b5050505050815250509050806000015181602001518260400151836060015184608001518560a001518660c001518760e00151995099509950995099509950995099505050919395975091939597565b6000828152600160205260408120548391036105595760405162461bcd60e51b815260040161012390610cb0565b6000838152600160209081526040918290208251808401909352600b83526a494e5f50524f475245535360a81b928201929092528351908401207fe38ab42a9b34cd16f2f932e0665f4a110c415b6b2954877d3f8d60f451ab62741480610605575060408051808201909152600981526810d3d354131155115160ba1b6020918201528351908401207fa6586f17a8a5e4698239c02f8797ee31fe064badfc69974a661aa1af950d9ea6145b80610655575060408051808201909152600981526810d05390d15313115160ba1b6020918201528351908401207f36ef5051a56846bc0b16aaddb4222732c686c48d3d8ef8c16e174b26611f03f3145b6106925760405162461bcd60e51b815260206004820152600e60248201526d496e76616c69642073746174757360901b6044820152606401610123565b600681016106a08482610d70565b50837f5ce2807b483df48397bfa712826f58b2c885e4abf28bb96352c6da74906c1551846040516101799190610e30565b6000808551116107235760405162461bcd60e51b815260206004820152601e60248201527f4f7065726174696f6e20747970652063616e6e6f7420626520656d70747900006044820152606401610123565b60008451116107745760405162461bcd60e51b815260206004820152601b60248201527f4465736372697074696f6e2063616e6e6f7420626520656d70747900000000006044820152606401610123565b60008351116107c55760405162461bcd60e51b815260206004820152601860248201527f4c6f636174696f6e2063616e6e6f7420626520656d70747900000000000000006044820152606401610123565b6000805490806107d483610e43565b90915550506000805460408051610100810182528281523360208083019182528284018b8152606084018b9052608084018a90524260a085015284518086018652600b81526a494e5f50524f475245535360a81b8184015260c085015260e084018990528587526001918290529390952082518155905194810180546001600160a01b0319166001600160a01b039096169590951790945590519192909160028201906108819082610d70565b50606082015160038201906108969082610d70565b50608082015160048201906108ab9082610d70565b5060a0820151600582015560c082015160068201906108ca9082610d70565b5060e082015160078201906108df9082610d70565b5050336000818152600260209081526040808320805460018101825590845291909220018490555190915082907f24a439a0f1a1fabccf0e86a4e3dff944e1321e09cc9652d4e03c0b93a15feea790610939908a90610e30565b60405180910390a395945050505050565b6001600160a01b0381166000908152600260209081526040918290208054835181840281018401909452808452606093928301828280156109aa57602002820191906000526020600020905b815481526020019060010190808311610996575b50505050509050919050565b634e487b7160e01b600052604160045260246000fd5b600082601f8301126109dd57600080fd5b813567ffffffffffffffff808211156109f8576109f86109b6565b604051601f8301601f19908116603f01168101908282118183101715610a2057610a206109b6565b81604052838152866020858801011115610a3957600080fd5b836020870160208301376000602085830101528094505050505092915050565b60008060408385031215610a6c57600080fd5b82359150602083013567ffffffffffffffff811115610a8a57600080fd5b610a96858286016109cc565b9150509250929050565b600060208284031215610ab257600080fd5b5035919050565b6000815180845260005b81811015610adf57602081850181015186830182015201610ac3565b506000602082860101526020601f19601f83011685010191505092915050565b8881526001600160a01b038816602082015261010060408201819052600090610b2a8382018a610ab9565b90508281036060840152610b3e8189610ab9565b90508281036080840152610b528188610ab9565b90508560a084015282810360c0840152610b6c8186610ab9565b905082810360e0840152610b808185610ab9565b9b9a5050505050505050505050565b60008060008060808587031215610ba557600080fd5b843567ffffffffffffffff80821115610bbd57600080fd5b610bc9888389016109cc565b95506020870135915080821115610bdf57600080fd5b610beb888389016109cc565b94506040870135915080821115610c0157600080fd5b610c0d888389016109cc565b93506060870135915080821115610c2357600080fd5b50610c30878288016109cc565b91505092959194509250565b600060208284031215610c4e57600080fd5b81356001600160a01b0381168114610c6557600080fd5b9392505050565b6020808252825182820181905260009190848201906040850190845b81811015610ca457835183529284019291840191600101610c88565b50909695505050505050565b60208082526018908201527f4f7065726174696f6e20646f6573206e6f742065786973740000000000000000604082015260600190565b600181811c90821680610cfb57607f821691505b602082108103610d1b57634e487b7160e01b600052602260045260246000fd5b50919050565b601f821115610d6b57600081815260208120601f850160051c81016020861015610d485750805b601f850160051c820191505b81811015610d6757828155600101610d54565b5050505b505050565b815167ffffffffffffffff811115610d8a57610d8a6109b6565b610d9e81610d988454610ce7565b84610d21565b602080601f831160018114610dd35760008415610dbb5750858301515b600019600386901b1c1916600185901b178555610d67565b600085815260208120601f198616915b82811015610e0257888601518255948401946001909101908401610de3565b5085821015610e205787850151600019600388901b60f8161c191681555b5050505050600190811b01905550565b602081526000610c656020830184610ab9565b600060018201610e6357634e487b7160e01b600052601160045260246000fd5b506001019056fea2646970667358221220a10fba7ef2f3ca09c9df2da3fc6a869eaa3bf2cc620548210b09f5774a9dc23964736f6c63430008140033",
  "linkReferences": {},
  "deployedLinkReferences": {}
}