{
  "_format": "hh-sol-artifact-1",
  "contractName": "SupplyChain",
  "sourceName": "contracts/SupplyChain.sol",
  "abi": [
    {
      "inputs": [],
      "stateMutability": "nonpayable",
      "type": "constructor"
    },
    {
      "anonymous": false,
      "inputs": [
        {
          "indexed": false,
          "internalType": "string",
          "name": "contractType",
          "type": "string"
        },
        {
          "indexed": false,
          "internalType": "address",
          "name": "newAddress",
          "type": "address"
        }
      ],
      "name": "ContractUpgraded",
      "type": "event"
    },
    {
      "anonymous": false,
      "inputs": [
        {
          "indexed": true,
          "internalType": "address",
          "name": "operator",
          "type": "address"
        }
      ],
      "name": "OperatorAuthorized",
      "type": "event"
    },
    {
      "anonymous": false,
      "inputs": [
        {
          "indexed": true,
          "internalType": "address",
          "name": "operator",
          "type": "address"
        }
      ],
      "name": "OperatorRevoked",
      "type": "event"
    },
    {
      "inputs": [
        {
          "internalType": "address",
          "name": "_operator",
          "type": "address"
        }
      ],
      "name": "authorizeOperator",
      "outputs": [],
      "stateMutability": "nonpayable",
      "type": "function"
    },
    {
      "inputs": [
        {
          "internalType": "address",
          "name": "",
          "type": "address"
        }
      ],
      "name": "authorizedOperators",
      "outputs": [
        {
          "internalType": "bool",
          "name": "",
          "type": "bool"
        }
      ],
      "stateMutability": "view",
      "type": "function"
    },
    {
      "inputs": [
        {
          "internalType": "string",
          "name": "_operationType",
          "type": "string"
        },
        {
          "internalType": "string",
          "name": "_description",
          "type": "string"
        },
        {
          "internalType": "string",
          "name": "_location",
          "type": "string"
        },
        {
          "internalType": "string",
          "name": "_metadata",
          "type": "string"
        }
      ],
      "name": "createOperation",
      "outputs": [
        {
          "internalType": "uint256",
          "name": "",
          "type": "uint256"
        }
      ],
      "stateMutability": "nonpayable",
      "type": "function"
    },
    {
      "inputs": [
        {
          "internalType": "string",
          "name": "_productName",
          "type": "string"
        },
        {
          "internalType": "uint256",
          "name": "_quantity",
          "type": "uint256"
        },
        {
          "internalType": "string",
          "name": "_unit",
          "type": "string"
        },
        {
          "internalType": "uint256",
          "name": "_deadline",
          "type": "uint256"
        }
      ],
      "name": "createProductRequest",
      "outputs": [
        {
          "internalType": "uint256",
          "name": "",
          "type": "uint256"
        }
      ],
      "stateMutability": "nonpayable",
      "type": "function"
    },
    {
      "inputs": [
        {
          "internalType": "uint256",
          "name": "_operationId",
          "type": "uint256"
        }
      ],
      "name": "getOperationInfo",
      "outputs": [
        {
          "internalType": "uint256",
          "name": "operationId",
          "type": "uint256"
        },
        {
          "internalType": "address",
          "name": "operator",
          "type": "address"
        },
        {
          "internalType": "string",
          "name": "operationType",
          "type": "string"
        },
        {
          "internalType": "string",
          "name": "description",
          "type": "string"
        },
        {
          "internalType": "string",
          "name": "location",
          "type": "string"
        },
        {
          "internalType": "uint256",
          "name": "timestamp",
          "type": "uint256"
        },
        {
          "internalType": "string",
          "name": "status",
          "type": "string"
        },
        {
          "internalType": "string",
          "name": "metadata",
          "type": "string"
        }
      ],
      "stateMutability": "view",
      "type": "function"
    },
    {
      "inputs": [
        {
          "internalType": "uint256",
          "name": "_requestId",
          "type": "uint256"
        }
      ],
      "name": "getRequestInfo",
      "outputs": [
        {
          "internalType": "uint256",
          "name": "requestId",
          "type": "uint256"
        },
        {
          "internalType": "address",
          "name": "requester",
          "type": "address"
        },
        {
          "internalType": "string",
          "name": "productName",
          "type": "string"
        },
        {
          "internalType": "uint256",
          "name": "quantity",
          "type": "uint256"
        },
        {
          "internalType": "string",
          "name": "unit",
          "type": "string"
        },
        {
          "internalType": "uint256",
          "name": "deadline",
          "type": "uint256"
        },
        {
          "internalType": "string",
          "name": "status",
          "type": "string"
        },
        {
          "internalType": "uint256",
          "name": "createdAt",
          "type": "uint256"
        },
        {
          "internalType": "uint256",
          "name": "updatedAt",
          "type": "uint256"
        }
      ],
      "stateMutability": "view",
      "type": "function"
    },
    {
      "inputs": [
        {
          "internalType": "address",
          "name": "_user",
          "type": "address"
        }
      ],
      "name": "getUserInfo",
      "outputs": [
        {
          "internalType": "string",
          "name": "name",
          "type": "string"
        },
        {
          "internalType": "string",
          "name": "email",
          "type": "string"
        },
        {
          "internalType": "string",
          "name": "role",
          "type": "string"
        },
        {
          "internalType": "bool",
          "name": "isActive",
          "type": "bool"
        },
        {
          "internalType": "uint256",
          "name": "registrationDate",
          "type": "uint256"
        }
      ],
      "stateMutability": "view",
      "type": "function"
    },
    {
      "inputs": [
        {
          "internalType": "address",
          "name": "_userRegistry",
          "type": "address"
        },
        {
          "internalType": "address",
          "name": "_productRequest",
          "type": "address"
        },
        {
          "internalType": "address",
          "name": "_operationRegistry",
          "type": "address"
        }
      ],
      "name": "initialize",
      "outputs": [],
      "stateMutability": "nonpayable",
      "type": "function"
    },
    {
      "inputs": [],
      "name": "operationRegistry",
      "outputs": [
        {
          "internalType": "contract OperationRegistry",
          "name": "",
          "type": "address"
        }
      ],
      "stateMutability": "view",
      "type": "function"
    },
    {
      "inputs": [],
      "name": "owner",
      "outputs": [
        {
          "internalType": "address",
          "name": "",
          "type": "address"
        }
      ],
      "stateMutability": "view",
      "type": "function"
    },
    {
      "inputs": [],
      "name": "productRequest",
      "outputs": [
        {
          "internalType": "contract ProductRequest",
          "name": "",
          "type": "address"
        }
      ],
      "stateMutability": "view",
      "type": "function"
    },
    {
      "inputs": [
        {
          "internalType": "string",
          "name": "_name",
          "type": "string"
        },
        {
          "internalType": "string",
          "name": "_email",
          "type": "string"
        },
        {
          "internalType": "string",
          "name": "_role",
          "type": "string"
        }
      ],
      "name": "registerUser",
      "outputs": [
        {
          "internalType": "bool",
          "name": "",
          "type": "bool"
        }
      ],
      "stateMutability": "nonpayable",
      "type": "function"
    },
    {
      "inputs": [
        {
          "internalType": "address",
          "name": "_operator",
          "type": "address"
        }
      ],
      "name": "revokeOperator",
      "outputs": [],
      "stateMutability": "nonpayable",
      "type": "function"
    },
    {
      "inputs": [
        {
          "internalType": "string",
          "name": "_contractType",
          "type": "string"
        },
        {
          "internalType": "address",
          "name": "_newAddress",
          "type": "address"
        }
      ],
      "name": "upgradeContract",
      "outputs": [],
      "stateMutability": "nonpayable",
      "type": "function"
    },
    {
      "inputs": [],
      "name": "userRegistry",
      "outputs": [
        {
          "internalType": "contract UserRegistry",
          "name": "",
          "type": "address"
        }
      ],
      "stateMutability": "view",
      "type": "function"
    }
  ],
  "bytecode": "0x608060405234801561001057600080fd5b50600380546001600160a01b031916339081179091556000908152600460205260409020805460ff191660011790556115a88061004e6000396000f3fe608060405234801561001057600080fd5b50600436106100f55760003560e01c8063959b8c3f11610097578063c0c53b8b11610066578063c0c53b8b14610256578063d637dcfa14610269578063f8c094891461027c578063fad8b32a1461028f57600080fd5b8063959b8c3f146101e85780639bcce59d146101fb5780639f5ab7d01461021c578063b08b62011461022f57600080fd5b8063536dca80116100d3578063536dca80146101735780635c7460d61461019e5780636386c1c7146101b15780638da5cb5b146101d557600080fd5b80630b816045146100fa5780631271bd531461012b578063181d989b14610140575b600080fd5b61010d610108366004610c4c565b6102a2565b60405161012299989796959493929190610cb5565b60405180910390f35b61013e610139366004610e0b565b610344565b005b61016361014e366004610e5d565b60046020526000908152604090205460ff1681565b6040519015158152602001610122565b600254610186906001600160a01b031681565b6040516001600160a01b039091168152602001610122565b600054610186906001600160a01b031681565b6101c46101bf366004610e5d565b6105a1565b604051610122959493929190610e7a565b600354610186906001600160a01b031681565b61013e6101f6366004610e5d565b610630565b61020e610209366004610ec8565b610765565b604051908152602001610122565b61020e61022a366004610f75565b61084c565b61024261023d366004610c4c565b6108e7565b604051610122989796959493929190610fea565b61013e61026436600461107a565b610985565b6101636102773660046110c5565b610afa565b600154610186906001600160a01b031681565b61013e61029d366004610e5d565b610b71565b60015460405163c58343ef60e01b81526004810183905260009182916060918391839183918391839182916001600160a01b03169063c58343ef90602401600060405180830381865afa1580156102fd573d6000803e3d6000fd5b505050506040513d6000823e601f3d908101601f1916820160405261032591908101906111aa565b9850985098509850985098509850985098509193959799909294969850565b6003546001600160a01b031633146103775760405162461bcd60e51b815260040161036e90611274565b60405180910390fd5b6001600160a01b0381166103cd5760405162461bcd60e51b815260206004820152601860248201527f496e76616c696420636f6e747261637420616464726573730000000000000000604482015260640161036e565b60408051808201909152600c81526b55736572526567697374727960a01b6020918201528251908301207f74e16b87432d3331ce09bf7865dc3639c5b492e672409155ea5ff5ead5b8c8f50161043d57600080546001600160a01b0319166001600160a01b038316179055610564565b60408051808201909152600e81526d141c9bd91d58dd14995c5d595cdd60921b6020918201528251908301207fe54c6dcd5b8a03482e1f3abf15b9c95eb5509eddf78cf4fcee94df9d43a10d32016104af57600180546001600160a01b0319166001600160a01b038316179055610564565b6040805180820190915260118152704f7065726174696f6e526567697374727960781b6020918201528251908301207f3fb849e18e4c8228e20b076f607b3fb2f0a6e19cbfc4120919f8910db70674bd0161052457600280546001600160a01b0319166001600160a01b038316179055610564565b60405162461bcd60e51b8152602060048201526015602482015274496e76616c696420636f6e7472616374207479706560581b604482015260640161036e565b7f2b51ff7c4cc8e6fe1c72e9d9685b7d2a88a5d82ad3a644afbdceb0272c89c1c382826040516105959291906112b5565b60405180910390a15050565b60008054604051636f77926b60e01b81526001600160a01b0384811660048301526060938493849391928392911690636f77926b90602401600060405180830381865afa1580156105f6573d6000803e3d6000fd5b505050506040513d6000823e601f3d908101601f1916820160405261061e91908101906112df565b939a9299509097509550909350915050565b6003546001600160a01b0316331461065a5760405162461bcd60e51b815260040161036e90611274565b6001600160a01b0381166106b05760405162461bcd60e51b815260206004820152601860248201527f496e76616c6964206f70657261746f7220616464726573730000000000000000604482015260640161036e565b6001600160a01b03811660009081526004602052604090205460ff16156107195760405162461bcd60e51b815260206004820152601b60248201527f4f70657261746f7220616c726561647920617574686f72697a65640000000000604482015260640161036e565b6001600160a01b038116600081815260046020526040808220805460ff19166001179055517fcc13c9db8dd1ea1e88548833406d061f3c0cdddb6f94660374e5515d0b95ce099190a250565b3360009081526004602052604081205460ff168061078d57506003546001600160a01b031633145b6107ca5760405162461bcd60e51b815260206004820152600e60248201526d139bdd08185d5d1a1bdc9a5e995960921b604482015260640161036e565b600254604051639bcce59d60e01b81526001600160a01b0390911690639bcce59d9061080090889088908890889060040161138b565b6020604051808303816000875af115801561081f573d6000803e3d6000fd5b505050506040513d601f19601f8201168201806040525081019061084391906113e3565b95945050505050565b3360009081526004602052604081205460ff168061087457506003546001600160a01b031633145b6108b15760405162461bcd60e51b815260206004820152600e60248201526d139bdd08185d5d1a1bdc9a5e995960921b604482015260640161036e565b60015460405163454da21160e11b81526001600160a01b0390911690638a9b4422906108009088908890889088906004016113fc565b60025460405163080b8e4960e21b8152600481018390526000918291606091829182918591839182916001600160a01b039091169063202e392490602401600060405180830381865afa158015610942573d6000803e3d6000fd5b505050506040513d6000823e601f3d908101601f1916820160405261096a9190810190611439565b97509750975097509750975097509750919395975091939597565b6003546001600160a01b031633146109af5760405162461bcd60e51b815260040161036e90611274565b6001600160a01b038316610a055760405162461bcd60e51b815260206004820152601c60248201527f496e76616c696420557365725265676973747279206164647265737300000000604482015260640161036e565b6001600160a01b038216610a5b5760405162461bcd60e51b815260206004820152601e60248201527f496e76616c69642050726f647563745265717565737420616464726573730000604482015260640161036e565b6001600160a01b038116610abb5760405162461bcd60e51b815260206004820152602160248201527f496e76616c6964204f7065726174696f6e5265676973747279206164647265736044820152607360f81b606482015260840161036e565b600080546001600160a01b039485166001600160a01b031991821617909155600180549385169382169390931790925560028054919093169116179055565b60008054604051636b1bee7d60e11b81526001600160a01b039091169063d637dcfa90610b2f9087908790879060040161152f565b600060405180830381600087803b158015610b4957600080fd5b505af1925050508015610b5a575060015b610b6657506000610b6a565b5060015b9392505050565b6003546001600160a01b03163314610b9b5760405162461bcd60e51b815260040161036e90611274565b6001600160a01b03811660009081526004602052604090205460ff16610c035760405162461bcd60e51b815260206004820152601760248201527f4f70657261746f72206e6f7420617574686f72697a6564000000000000000000604482015260640161036e565b6001600160a01b038116600081815260046020526040808220805460ff19169055517fa5f3b7626fd86ff989f1d22cf3d41d74591ea6eb99241079400b0c332a9a8f119190a250565b600060208284031215610c5e57600080fd5b5035919050565b60005b83811015610c80578181015183820152602001610c68565b50506000910152565b60008151808452610ca1816020860160208601610c65565b601f01601f19169290920160200192915050565b8981526001600160a01b038916602082015261012060408201819052600090610ce08382018b610c89565b90508860608401528281036080840152610cfa8189610c89565b90508660a084015282810360c0840152610d148187610c89565b60e084019590955250506101000152979650505050505050565b634e487b7160e01b600052604160045260246000fd5b604051601f8201601f1916810167ffffffffffffffff81118282101715610d6d57610d6d610d2e565b604052919050565b600067ffffffffffffffff821115610d8f57610d8f610d2e565b50601f01601f191660200190565b600082601f830112610dae57600080fd5b8135610dc1610dbc82610d75565b610d44565b818152846020838601011115610dd657600080fd5b816020850160208301376000918101602001919091529392505050565b6001600160a01b0381168114610e0857600080fd5b50565b60008060408385031215610e1e57600080fd5b823567ffffffffffffffff811115610e3557600080fd5b610e4185828601610d9d565b9250506020830135610e5281610df3565b809150509250929050565b600060208284031215610e6f57600080fd5b8135610b6a81610df3565b60a081526000610e8d60a0830188610c89565b8281036020840152610e9f8188610c89565b90508281036040840152610eb38187610c89565b94151560608401525050608001529392505050565b60008060008060808587031215610ede57600080fd5b843567ffffffffffffffff80821115610ef657600080fd5b610f0288838901610d9d565b95506020870135915080821115610f1857600080fd5b610f2488838901610d9d565b94506040870135915080821115610f3a57600080fd5b610f4688838901610d9d565b93506060870135915080821115610f5c57600080fd5b50610f6987828801610d9d565b91505092959194509250565b60008060008060808587031215610f8b57600080fd5b843567ffffffffffffffff80821115610fa357600080fd5b610faf88838901610d9d565b9550602087013594506040870135915080821115610fcc57600080fd5b50610fd987828801610d9d565b949793965093946060013593505050565b8881526001600160a01b0388166020820152610100604082018190526000906110158382018a610c89565b905082810360608401526110298189610c89565b9050828103608084015261103d8188610c89565b90508560a084015282810360c08401526110578186610c89565b905082810360e084015261106b8185610c89565b9b9a5050505050505050505050565b60008060006060848603121561108f57600080fd5b833561109a81610df3565b925060208401356110aa81610df3565b915060408401356110ba81610df3565b809150509250925092565b6000806000606084860312156110da57600080fd5b833567ffffffffffffffff808211156110f257600080fd5b6110fe87838801610d9d565b9450602086013591508082111561111457600080fd5b61112087838801610d9d565b9350604086013591508082111561113657600080fd5b5061114386828701610d9d565b9150509250925092565b805161115881610df3565b919050565b600082601f83011261116e57600080fd5b815161117c610dbc82610d75565b81815284602083860101111561119157600080fd5b6111a2826020830160208701610c65565b949350505050565b60008060008060008060008060006101208a8c0312156111c957600080fd5b895198506111d960208b0161114d565b975060408a015167ffffffffffffffff808211156111f657600080fd5b6112028d838e0161115d565b985060608c0151975060808c015191508082111561121f57600080fd5b61122b8d838e0161115d565b965060a08c0151955060c08c015191508082111561124857600080fd5b506112558c828d0161115d565b93505060e08a015191506101008a015190509295985092959850929598565b60208082526021908201527f4f6e6c79206f776e65722063616e2063616c6c20746869732066756e6374696f6040820152603760f91b606082015260800190565b6040815260006112c86040830185610c89565b905060018060a01b03831660208301529392505050565b600080600080600060a086880312156112f757600080fd5b855167ffffffffffffffff8082111561130f57600080fd5b61131b89838a0161115d565b9650602088015191508082111561133157600080fd5b61133d89838a0161115d565b9550604088015191508082111561135357600080fd5b506113608882890161115d565b9350506060860151801515811461137657600080fd5b80925050608086015190509295509295909350565b60808152600061139e6080830187610c89565b82810360208401526113b08187610c89565b905082810360408401526113c48186610c89565b905082810360608401526113d88185610c89565b979650505050505050565b6000602082840312156113f557600080fd5b5051919050565b60808152600061140f6080830187610c89565b85602084015282810360408401526114278186610c89565b91505082606083015295945050505050565b600080600080600080600080610100898b03121561145657600080fd5b8851975061146660208a0161114d565b9650604089015167ffffffffffffffff8082111561148357600080fd5b61148f8c838d0161115d565b975060608b01519150808211156114a557600080fd5b6114b18c838d0161115d565b965060808b01519150808211156114c757600080fd5b6114d38c838d0161115d565b955060a08b0151945060c08b01519150808211156114f057600080fd5b6114fc8c838d0161115d565b935060e08b015191508082111561151257600080fd5b5061151f8b828c0161115d565b9150509295985092959890939650565b6060815260006115426060830186610c89565b82810360208401526115548186610c89565b905082810360408401526115688185610c89565b969550505050505056fea2646970667358221220b51c05e868dc2feaaa22670acf8d59e9ab90413d92d7441b942f2bd5230dda7f64736f6c63430008140033",
  "linkReferences": {},
  "deployedLinkReferences": {}
}