{
  "_format": "hh-sol-artifact-1",
  "contractName": "SupplyChainCO2",
  "sourceName": "contracts/SupplyChainCO2.sol",
  "abi": [
    {
      "inputs": [],
      "stateMutability": "nonpayable",
      "type": "constructor"
    },
    {
      "inputs": [],
      "name": "AccessControlBadConfirmation",
      "type": "error"
    },
    {
      "inputs": [
        {
          "internalType": "address",
          "name": "account",
          "type": "address"
        },
        {
          "internalType": "bytes32",
          "name": "neededRole",
          "type": "bytes32"
        }
      ],
      "name": "AccessControlUnauthorizedAccount",
      "type": "error"
    },
    {
      "inputs": [
        {
          "internalType": "address",
          "name": "owner",
          "type": "address"
        }
      ],
      "name": "OwnableInvalidOwner",
      "type": "error"
    },
    {
      "inputs": [
        {
          "internalType": "address",
          "name": "account",
          "type": "address"
        }
      ],
      "name": "OwnableUnauthorizedAccount",
      "type": "error"
    },
    {
      "anonymous": false,
      "inputs": [
        {
          "indexed": false,
          "internalType": "uint256",
          "name": "lotId",
          "type": "uint256"
        },
        {
          "indexed": false,
          "internalType": "string",
          "name": "productName",
          "type": "string"
        },
        {
          "indexed": false,
          "internalType": "address",
          "name": "producer",
          "type": "address"
        },
        {
          "indexed": false,
          "internalType": "uint256",
          "name": "co2Produced",
          "type": "uint256"
        }
      ],
      "name": "LotCreated",
      "type": "event"
    },
    {
      "anonymous": false,
      "inputs": [
        {
          "indexed": true,
          "internalType": "address",
          "name": "previousOwner",
          "type": "address"
        },
        {
          "indexed": true,
          "internalType": "address",
          "name": "newOwner",
          "type": "address"
        }
      ],
      "name": "OwnershipTransferred",
      "type": "event"
    },
    {
      "anonymous": false,
      "inputs": [
        {
          "indexed": true,
          "internalType": "bytes32",
          "name": "role",
          "type": "bytes32"
        },
        {
          "indexed": true,
          "internalType": "bytes32",
          "name": "previousAdminRole",
          "type": "bytes32"
        },
        {
          "indexed": true,
          "internalType": "bytes32",
          "name": "newAdminRole",
          "type": "bytes32"
        }
      ],
      "name": "RoleAdminChanged",
      "type": "event"
    },
    {
      "anonymous": false,
      "inputs": [
        {
          "indexed": true,
          "internalType": "bytes32",
          "name": "role",
          "type": "bytes32"
        },
        {
          "indexed": true,
          "internalType": "address",
          "name": "account",
          "type": "address"
        },
        {
          "indexed": true,
          "internalType": "address",
          "name": "sender",
          "type": "address"
        }
      ],
      "name": "RoleGranted",
      "type": "event"
    },
    {
      "anonymous": false,
      "inputs": [
        {
          "indexed": true,
          "internalType": "bytes32",
          "name": "role",
          "type": "bytes32"
        },
        {
          "indexed": true,
          "internalType": "address",
          "name": "account",
          "type": "address"
        },
        {
          "indexed": true,
          "internalType": "address",
          "name": "sender",
          "type": "address"
        }
      ],
      "name": "RoleRevoked",
      "type": "event"
    },
    {
      "anonymous": false,
      "inputs": [
        {
          "indexed": false,
          "internalType": "uint256",
          "name": "fromLotId",
          "type": "uint256"
        },
        {
          "indexed": false,
          "internalType": "uint256",
          "name": "toLotId",
          "type": "uint256"
        },
        {
          "indexed": false,
          "internalType": "address",
          "name": "transformer",
          "type": "address"
        },
        {
          "indexed": false,
          "internalType": "uint256",
          "name": "co2Emitted",
          "type": "uint256"
        }
      ],
      "name": "TransformationLogged",
      "type": "event"
    },
    {
      "anonymous": false,
      "inputs": [
        {
          "indexed": false,
          "internalType": "uint256",
          "name": "lotId",
          "type": "uint256"
        },
        {
          "indexed": false,
          "internalType": "address",
          "name": "transporter",
          "type": "address"
        },
        {
          "indexed": false,
          "internalType": "uint256",
          "name": "co2Emitted",
          "type": "uint256"
        },
        {
          "indexed": false,
          "internalType": "string",
          "name": "from",
          "type": "string"
        },
        {
          "indexed": false,
          "internalType": "string",
          "name": "to",
          "type": "string"
        }
      ],
      "name": "TransportLogged",
      "type": "event"
    },
    {
      "inputs": [],
      "name": "DEFAULT_ADMIN_ROLE",
      "outputs": [
        {
          "internalType": "bytes32",
          "name": "",
          "type": "bytes32"
        }
      ],
      "stateMutability": "view",
      "type": "function"
    },
    {
      "inputs": [],
      "name": "OPERATOR_ROLE",
      "outputs": [
        {
          "internalType": "bytes32",
          "name": "",
          "type": "bytes32"
        }
      ],
      "stateMutability": "view",
      "type": "function"
    },
    {
      "inputs": [
        {
          "internalType": "string",
          "name": "productName",
          "type": "string"
        },
        {
          "internalType": "uint256",
          "name": "co2Produced",
          "type": "uint256"
        }
      ],
      "name": "createLot",
      "outputs": [],
      "stateMutability": "nonpayable",
      "type": "function"
    },
    {
      "inputs": [
        {
          "internalType": "bytes32",
          "name": "role",
          "type": "bytes32"
        }
      ],
      "name": "getRoleAdmin",
      "outputs": [
        {
          "internalType": "bytes32",
          "name": "",
          "type": "bytes32"
        }
      ],
      "stateMutability": "view",
      "type": "function"
    },
    {
      "inputs": [
        {
          "internalType": "address",
          "name": "account",
          "type": "address"
        }
      ],
      "name": "grantOperatorRole",
      "outputs": [],
      "stateMutability": "nonpayable",
      "type": "function"
    },
    {
      "inputs": [
        {
          "internalType": "bytes32",
          "name": "role",
          "type": "bytes32"
        },
        {
          "internalType": "address",
          "name": "account",
          "type": "address"
        }
      ],
      "name": "grantRole",
      "outputs": [],
      "stateMutability": "nonpayable",
      "type": "function"
    },
    {
      "inputs": [
        {
          "internalType": "bytes32",
          "name": "role",
          "type": "bytes32"
        },
        {
          "internalType": "address",
          "name": "account",
          "type": "address"
        }
      ],
      "name": "hasRole",
      "outputs": [
        {
          "internalType": "bool",
          "name": "",
          "type": "bool"
        }
      ],
      "stateMutability": "view",
      "type": "function"
    },
    {
      "inputs": [
        {
          "internalType": "uint256",
          "name": "fromLotId",
          "type": "uint256"
        },
        {
          "internalType": "string",
          "name": "newProductName",
          "type": "string"
        },
        {
          "internalType": "uint256",
          "name": "co2Emitted",
          "type": "uint256"
        }
      ],
      "name": "logTransformation",
      "outputs": [],
      "stateMutability": "nonpayable",
      "type": "function"
    },
    {
      "inputs": [
        {
          "internalType": "uint256",
          "name": "lotId",
          "type": "uint256"
        },
        {
          "internalType": "uint256",
          "name": "co2Emitted",
          "type": "uint256"
        },
        {
          "internalType": "string",
          "name": "fromLocation",
          "type": "string"
        },
        {
          "internalType": "string",
          "name": "toLocation",
          "type": "string"
        }
      ],
      "name": "logTransport",
      "outputs": [],
      "stateMutability": "nonpayable",
      "type": "function"
    },
    {
      "inputs": [],
      "name": "lotCounter",
      "outputs": [
        {
          "internalType": "uint256",
          "name": "",
          "type": "uint256"
        }
      ],
      "stateMutability": "view",
      "type": "function"
    },
    {
      "inputs": [
        {
          "internalType": "uint256",
          "name": "",
          "type": "uint256"
        }
      ],
      "name": "lots",
      "outputs": [
        {
          "internalType": "uint256",
          "name": "lotId",
          "type": "uint256"
        },
        {
          "internalType": "string",
          "name": "productName",
          "type": "string"
        },
        {
          "internalType": "address",
          "name": "producer",
          "type": "address"
        },
        {
          "internalType": "uint256",
          "name": "productionDate",
          "type": "uint256"
        },
        {
          "internalType": "uint256",
          "name": "co2Produced",
          "type": "uint256"
        },
        {
          "internalType": "bool",
          "name": "exists",
          "type": "bool"
        }
      ],
      "stateMutability": "view",
      "type": "function"
    },
    {
      "inputs": [],
      "name": "owner",
      "outputs": [
        {
          "internalType": "address",
          "name": "",
          "type": "address"
        }
      ],
      "stateMutability": "view",
      "type": "function"
    },
    {
      "inputs": [],
      "name": "renounceOwnership",
      "outputs": [],
      "stateMutability": "nonpayable",
      "type": "function"
    },
    {
      "inputs": [
        {
          "internalType": "bytes32",
          "name": "role",
          "type": "bytes32"
        },
        {
          "internalType": "address",
          "name": "callerConfirmation",
          "type": "address"
        }
      ],
      "name": "renounceRole",
      "outputs": [],
      "stateMutability": "nonpayable",
      "type": "function"
    },
    {
      "inputs": [
        {
          "internalType": "address",
          "name": "account",
          "type": "address"
        }
      ],
      "name": "revokeOperatorRole",
      "outputs": [],
      "stateMutability": "nonpayable",
      "type": "function"
    },
    {
      "inputs": [
        {
          "internalType": "bytes32",
          "name": "role",
          "type": "bytes32"
        },
        {
          "internalType": "address",
          "name": "account",
          "type": "address"
        }
      ],
      "name": "revokeRole",
      "outputs": [],
      "stateMutability": "nonpayable",
      "type": "function"
    },
    {
      "inputs": [
        {
          "internalType": "bytes4",
          "name": "interfaceId",
          "type": "bytes4"
        }
      ],
      "name": "supportsInterface",
      "outputs": [
        {
          "internalType": "bool",
          "name": "",
          "type": "bool"
        }
      ],
      "stateMutability": "view",
      "type": "function"
    },
    {
      "inputs": [
        {
          "internalType": "address",
          "name": "newOwner",
          "type": "address"
        }
      ],
      "name": "transferOwnership",
      "outputs": [],
      "stateMutability": "nonpayable",
      "type": "function"
    },
    {
      "inputs": [
        {
          "internalType": "uint256",
          "name": "",
          "type": "uint256"
        },
        {
          "internalType": "uint256",
          "name": "",
          "type": "uint256"
        }
      ],
      "name": "transformations",
      "outputs": [
        {
          "internalType": "uint256",
          "name": "fromLotId",
          "type": "uint256"
        },
        {
          "internalType": "uint256",
          "name": "toLotId",
          "type": "uint256"
        },
        {
          "internalType": "address",
          "name": "transformer",
          "type": "address"
        },
        {
          "internalType": "uint256",
          "name": "co2Emitted",
          "type": "uint256"
        },
        {
          "internalType": "uint256",
          "name": "date",
          "type": "uint256"
        }
      ],
      "stateMutability": "view",
      "type": "function"
    },
    {
      "inputs": [
        {
          "internalType": "uint256",
          "name": "",
          "type": "uint256"
        },
        {
          "internalType": "uint256",
          "name": "",
          "type": "uint256"
        }
      ],
      "name": "transports",
      "outputs": [
        {
          "internalType": "uint256",
          "name": "lotId",
          "type": "uint256"
        },
        {
          "internalType": "address",
          "name": "transporter",
          "type": "address"
        },
        {
          "internalType": "uint256",
          "name": "co2Emitted",
          "type": "uint256"
        },
        {
          "internalType": "uint256",
          "name": "date",
          "type": "uint256"
        },
        {
          "internalType": "string",
          "name": "fromLocation",
          "type": "string"
        },
        {
          "internalType": "string",
          "name": "toLocation",
          "type": "string"
        }
      ],
      "stateMutability": "view",
      "type": "function"
    }
  ],
  "bytecode": "0x608060405234801561001057600080fd5b50338061003757604051631e4fbdf760e01b81526000600482015260240160405180910390fd5b6100408161007d565b5061004c6000336100cd565b506100777f97667070c54ef182b0f5858b034beac1b6f3089aa2d3188bb1e8929f4fa9b929336100cd565b50610162565b600080546001600160a01b038381166001600160a01b0319831681178455604051919092169283917f8be0079c531659141344cd1fd0a4f28419497f9722a3daafe3b4186f6b6457e09190a35050565b60008281526001602090815260408083206001600160a01b038516845290915281205460ff166101585760008381526001602081815260408084206001600160a01b0387168086529252808420805460ff19169093179092559051339286917f2f8788117e7eff1d82e926ec794901d17c78024a50270940304540a733656f0d9190a450600161015c565b5060005b92915050565b61140880620001726000396000f3fe608060405234801561001057600080fd5b506004361061012c5760003560e01c80638da5cb5b116100ad578063d547741f11610071578063d547741f1461027e578063e375410c14610291578063f1648e84146102da578063f2fde38b146102ff578063f5b541a61461031257600080fd5b80638da5cb5b1461022c57806391d1485414610247578063a217fddf1461025a578063b219f7d714610262578063c4ce88fd1461027557600080fd5b806336568abe116100f457806336568abe146101c65780634b982300146101d9578063619624ed146101fe578063715018a6146102115780637bea28e41461021957600080fd5b806301ffc9a714610131578063135c868114610159578063248a9ca31461016e57806327ac0c58146101a05780632f2ff15d146101b3575b600080fd5b61014461013f366004610e3b565b610327565b60405190151581526020015b60405180910390f35b61016c610167366004610f0f565b61035e565b005b61019261017c366004610f86565b6000908152600160208190526040909120015490565b604051908152602001610150565b61016c6101ae366004610fbb565b6104ea565b61016c6101c1366004610fd6565b61050e565b61016c6101d4366004610fd6565b61053a565b6101ec6101e7366004611002565b610572565b6040516101509695949392919061106a565b61016c61020c3660046110bc565b6106e6565b61016c610975565b61016c61022736600461110c565b610989565b6000546040516001600160a01b039091168152602001610150565b610144610255366004610fd6565b610ac4565b610192600081565b61016c610270366004610fbb565b610aef565b61019260025481565b61016c61028c366004610fd6565b610b0f565b6102a461029f366004611002565b610b35565b6040805195865260208601949094526001600160a01b03909216928401929092526060830191909152608082015260a001610150565b6102ed6102e8366004610f86565b610b8c565b60405161015096959493929190611151565b61016c61030d366004610fbb565b610c57565b6101926000805160206113b383398151915281565b60006001600160e01b03198216637965db0b60e01b148061035857506301ffc9a760e01b6001600160e01b03198316145b92915050565b6103766000805160206113b383398151915233610ac4565b61039b5760405162461bcd60e51b81526004016103929061119a565b60405180910390fd5b60008481526003602052604090206005015460ff166103f15760405162461bcd60e51b8152602060048201526012602482015271131bdd08191bd95cc81b9bdd08195e1a5cdd60721b6044820152606401610392565b6000848152600560209081526040808320815160c0810183528881523381850190815292810188815242606083019081526080830189815260a08401899052845460018082018755958952969097208351600690970201958655935192850180546001600160a01b0319166001600160a01b039094169390931790925590516002840155905160038301559151600482019061048d908261124b565b5060a082015160058201906104a2908261124b565b5050507f3c9e0adfc26effa56f8fbab5ceb6119f4d62abcdf9ed040b2073ed81e095332d84338585856040516104dc95949392919061130b565b60405180910390a150505050565b6104f2610c95565b61050a6000805160206113b383398151915282610cc2565b5050565b6000828152600160208190526040909120015461052a81610d3b565b6105348383610cc2565b50505050565b6001600160a01b03811633146105635760405163334bd91960e11b815260040160405180910390fd5b61056d8282610d45565b505050565b6005602052816000526040600020818154811061058e57600080fd5b6000918252602090912060069091020180546001820154600283015460038401546004850180549497506001600160a01b039093169550909390929091906105d5906111c3565b80601f0160208091040260200160405190810160405280929190818152602001828054610601906111c3565b801561064e5780601f106106235761010080835404028352916020019161064e565b820191906000526020600020905b81548152906001019060200180831161063157829003601f168201915b505050505090806005018054610663906111c3565b80601f016020809104026020016040519081016040528092919081815260200182805461068f906111c3565b80156106dc5780601f106106b1576101008083540402835291602001916106dc565b820191906000526020600020905b8154815290600101906020018083116106bf57829003601f168201915b5050505050905086565b6106fe6000805160206113b383398151915233610ac4565b61071a5760405162461bcd60e51b81526004016103929061119a565b60008381526003602052604090206005015460ff1661077b5760405162461bcd60e51b815260206004820152601b60248201527f4f726967696e616c206c6f7420646f6573206e6f7420657869737400000000006044820152606401610392565b6002805490600061078b83611356565b90915550506040805160c0810182526002548082526020808301868152338486015242606085015260808401869052600160a085018190526000938452600390925293909120825181559251919291908201906107e8908261124b565b5060408201518160020160006101000a8154816001600160a01b0302191690836001600160a01b03160217905550606082015181600301556080820151816004015560a08201518160050160006101000a81548160ff021916908315150217905550905050600460008481526020019081526020016000206040518060a001604052808581526020016002548152602001336001600160a01b03168152602001838152602001428152509080600181540180825580915050600190039060005260206000209060050201600090919091909150600082015181600001556020820151816001015560408201518160020160006101000a8154816001600160a01b0302191690836001600160a01b03160217905550606082015181600301556080820151816004015550507fb416da328e0f28e9e384cd586661c538bdf2c1b7837e71346f5c33919a095ec8836002543384604051610968949392919093845260208401929092526001600160a01b03166040830152606082015260800190565b60405180910390a1505050565b61097d610c95565b6109876000610db2565b565b6109a16000805160206113b383398151915233610ac4565b6109bd5760405162461bcd60e51b81526004016103929061119a565b600280549060006109cd83611356565b90915550506040805160c0810182526002548082526020808301868152338486015242606085015260808401869052600160a08501819052600093845260039092529390912082518155925191929190820190610a2a908261124b565b50604082810151600283810180546001600160a01b0319166001600160a01b0390931692909217909155606084015160038401556080840151600484015560a0909301516005909201805460ff191692151592909217909155905490517fea423ead3fee1fc15d9c71d0e66b95ae9f0e52e576779999977264bcf8f26e3291610ab89185903390869061137d565b60405180910390a15050565b60009182526001602090815260408084206001600160a01b0393909316845291905290205460ff1690565b610af7610c95565b61050a6000805160206113b383398151915282610d45565b60008281526001602081905260409091200154610b2b81610d3b565b6105348383610d45565b60046020528160005260406000208181548110610b5157600080fd5b6000918252602090912060059091020180546001820154600283015460038401546004909401549295509093506001600160a01b0316919085565b60036020526000908152604090208054600182018054919291610bae906111c3565b80601f0160208091040260200160405190810160405280929190818152602001828054610bda906111c3565b8015610c275780601f10610bfc57610100808354040283529160200191610c27565b820191906000526020600020905b815481529060010190602001808311610c0a57829003601f168201915b5050505060028301546003840154600485015460059095015493946001600160a01b039092169390925060ff1686565b610c5f610c95565b6001600160a01b038116610c8957604051631e4fbdf760e01b815260006004820152602401610392565b610c9281610db2565b50565b6000546001600160a01b031633146109875760405163118cdaa760e01b8152336004820152602401610392565b6000610cce8383610ac4565b610d335760008381526001602081815260408084206001600160a01b0387168086529252808420805460ff19169093179092559051339286917f2f8788117e7eff1d82e926ec794901d17c78024a50270940304540a733656f0d9190a4506001610358565b506000610358565b610c928133610e02565b6000610d518383610ac4565b15610d335760008381526001602090815260408083206001600160a01b0386168085529252808320805460ff1916905551339286917ff6391f5c32d9c69d2a47ea670b442974b53935d1edc7fd64eb21e047a839171b9190a4506001610358565b600080546001600160a01b038381166001600160a01b0319831681178455604051919092169283917f8be0079c531659141344cd1fd0a4f28419497f9722a3daafe3b4186f6b6457e09190a35050565b610e0c8282610ac4565b61050a5760405163e2517d3f60e01b81526001600160a01b038216600482015260248101839052604401610392565b600060208284031215610e4d57600080fd5b81356001600160e01b031981168114610e6557600080fd5b9392505050565b634e487b7160e01b600052604160045260246000fd5b600082601f830112610e9357600080fd5b813567ffffffffffffffff80821115610eae57610eae610e6c565b604051601f8301601f19908116603f01168101908282118183101715610ed657610ed6610e6c565b81604052838152866020858801011115610eef57600080fd5b836020870160208301376000602085830101528094505050505092915050565b60008060008060808587031215610f2557600080fd5b8435935060208501359250604085013567ffffffffffffffff80821115610f4b57600080fd5b610f5788838901610e82565b93506060870135915080821115610f6d57600080fd5b50610f7a87828801610e82565b91505092959194509250565b600060208284031215610f9857600080fd5b5035919050565b80356001600160a01b0381168114610fb657600080fd5b919050565b600060208284031215610fcd57600080fd5b610e6582610f9f565b60008060408385031215610fe957600080fd5b82359150610ff960208401610f9f565b90509250929050565b6000806040838503121561101557600080fd5b50508035926020909101359150565b6000815180845260005b8181101561104a5760208185018101518683018201520161102e565b506000602082860101526020601f19601f83011685010191505092915050565b86815260018060a01b038616602082015284604082015283606082015260c06080820152600061109d60c0830185611024565b82810360a08401526110af8185611024565b9998505050505050505050565b6000806000606084860312156110d157600080fd5b83359250602084013567ffffffffffffffff8111156110ef57600080fd5b6110fb86828701610e82565b925050604084013590509250925092565b6000806040838503121561111f57600080fd5b823567ffffffffffffffff81111561113657600080fd5b61114285828601610e82565b95602094909401359450505050565b86815260c06020820152600061116a60c0830188611024565b6001600160a01b039690961660408301525060608101939093526080830191909152151560a09091015292915050565b6020808252600f908201526e2737ba1030b71037b832b930ba37b960891b604082015260600190565b600181811c908216806111d757607f821691505b6020821081036111f757634e487b7160e01b600052602260045260246000fd5b50919050565b601f82111561056d57600081815260208120601f850160051c810160208610156112245750805b601f850160051c820191505b8181101561124357828155600101611230565b505050505050565b815167ffffffffffffffff81111561126557611265610e6c565b6112798161127384546111c3565b846111fd565b602080601f8311600181146112ae57600084156112965750858301515b600019600386901b1c1916600185901b178555611243565b600085815260208120601f198616915b828110156112dd578886015182559484019460019091019084016112be565b50858210156112fb5787850151600019600388901b60f8161c191681555b5050505050600190811b01905550565b85815260018060a01b038516602082015283604082015260a06060820152600061133860a0830185611024565b828103608084015261134a8185611024565b98975050505050505050565b60006001820161137657634e487b7160e01b600052601160045260246000fd5b5060010190565b8481526080602082015260006113966080830186611024565b6001600160a01b0394909416604083015250606001529291505056fe97667070c54ef182b0f5858b034beac1b6f3089aa2d3188bb1e8929f4fa9b929a2646970667358221220c6bf9cec7a2e51f6e1b5a9e0cacdb63005ffff4bc6379e379e308af7aac92c1464736f6c63430008140033",
  "linkReferences": {},
  "deployedLinkReferences": {}
}