{
  "_format": "hh-sol-artifact-1",
  "contractName": "CO2Token",
  "sourceName": "contracts/CO2Token.sol",
  "abi": [
    {
      "anonymous": false,
      "inputs": [
        {
          "indexed": true,
          "internalType": "address",
          "name": "owner",
          "type": "address"
        },
        {
          "indexed": true,
          "internalType": "address",
          "name": "spender",
          "type": "address"
        },
        {
          "indexed": false,
          "internalType": "uint256",
          "name": "value",
          "type": "uint256"
        }
      ],
      "name": "Approval",
      "type": "event"
    },
    {
      "anonymous": false,
      "inputs": [
        {
          "indexed": true,
          "internalType": "address",
          "name": "from",
          "type": "address"
        },
        {
          "indexed": false,
          "internalType": "uint256",
          "name": "amount",
          "type": "uint256"
        }
      ],
      "name": "TokensBurned",
      "type": "event"
    },
    {
      "anonymous": false,
      "inputs": [
        {
          "indexed": true,
          "internalType": "address",
          "name": "to",
          "type": "address"
        },
        {
          "indexed": false,
          "internalType": "uint256",
          "name": "amount",
          "type": "uint256"
        }
      ],
      "name": "TokensMinted",
      "type": "event"
    },
    {
      "anonymous": false,
      "inputs": [
        {
          "indexed": true,
          "internalType": "address",
          "name": "from",
          "type": "address"
        },
        {
          "indexed": true,
          "internalType": "address",
          "name": "to",
          "type": "address"
        },
        {
          "indexed": false,
          "internalType": "uint256",
          "name": "value",
          "type": "uint256"
        }
      ],
      "name": "Transfer",
      "type": "event"
    },
    {
      "inputs": [
        {
          "internalType": "address",
          "name": "owner",
          "type": "address"
        },
        {
          "internalType": "address",
          "name": "spender",
          "type": "address"
        }
      ],
      "name": "allowance",
      "outputs": [
        {
          "internalType": "uint256",
          "name": "",
          "type": "uint256"
        }
      ],
      "stateMutability": "view",
      "type": "function"
    },
    {
      "inputs": [
        {
          "internalType": "address",
          "name": "spender",
          "type": "address"
        },
        {
          "internalType": "uint256",
          "name": "amount",
          "type": "uint256"
        }
      ],
      "name": "approve",
      "outputs": [
        {
          "internalType": "bool",
          "name": "",
          "type": "bool"
        }
      ],
      "stateMutability": "nonpayable",
      "type": "function"
    },
    {
      "inputs": [
        {
          "internalType": "address",
          "name": "account",
          "type": "address"
        }
      ],
      "name": "balanceOf",
      "outputs": [
        {
          "internalType": "uint256",
          "name": "",
          "type": "uint256"
        }
      ],
      "stateMutability": "view",
      "type": "function"
    },
    {
      "inputs": [],
      "name": "decimals",
      "outputs": [
        {
          "internalType": "uint8",
          "name": "",
          "type": "uint8"
        }
      ],
      "stateMutability": "view",
      "type": "function"
    },
    {
      "inputs": [],
      "name": "name",
      "outputs": [
        {
          "internalType": "string",
          "name": "",
          "type": "string"
        }
      ],
      "stateMutability": "view",
      "type": "function"
    },
    {
      "inputs": [
        {
          "internalType": "uint256",
          "name": "consumedCO2",
          "type": "uint256"
        },
        {
          "internalType": "uint256",
          "name": "thresholdCO2",
          "type": "uint256"
        }
      ],
      "name": "processOperationCO2",
      "outputs": [
        {
          "internalType": "bool",
          "name": "",
          "type": "bool"
        }
      ],
      "stateMutability": "nonpayable",
      "type": "function"
    },
    {
      "inputs": [
        {
          "internalType": "uint256",
          "name": "amount",
          "type": "uint256"
        }
      ],
      "name": "rewardCompensatoryAction",
      "outputs": [],
      "stateMutability": "nonpayable",
      "type": "function"
    },
    {
      "inputs": [],
      "name": "symbol",
      "outputs": [
        {
          "internalType": "string",
          "name": "",
          "type": "string"
        }
      ],
      "stateMutability": "view",
      "type": "function"
    },
    {
      "inputs": [],
      "name": "totalSupply",
      "outputs": [
        {
          "internalType": "uint256",
          "name": "",
          "type": "uint256"
        }
      ],
      "stateMutability": "view",
      "type": "function"
    },
    {
      "inputs": [
        {
          "internalType": "address",
          "name": "recipient",
          "type": "address"
        },
        {
          "internalType": "uint256",
          "name": "amount",
          "type": "uint256"
        }
      ],
      "name": "transfer",
      "outputs": [
        {
          "internalType": "bool",
          "name": "",
          "type": "bool"
        }
      ],
      "stateMutability": "nonpayable",
      "type": "function"
    },
    {
      "inputs": [
        {
          "internalType": "address",
          "name": "sender",
          "type": "address"
        },
        {
          "internalType": "address",
          "name": "recipient",
          "type": "address"
        },
        {
          "internalType": "uint256",
          "name": "amount",
          "type": "uint256"
        }
      ],
      "name": "transferFrom",
      "outputs": [
        {
          "internalType": "bool",
          "name": "",
          "type": "bool"
        }
      ],
      "stateMutability": "nonpayable",
      "type": "function"
    }
  ],
  "bytecode": "0x60c0604052600960809081526821a799102a37b5b2b760b91b60a0526000906200002a90826200011b565b5060408051808201909152600381526221a79960e91b60208201526001906200005490826200011b565b506002805460ff191660121790553480156200006f57600080fd5b50620001e7565b634e487b7160e01b600052604160045260246000fd5b600181811c90821680620000a157607f821691505b602082108103620000c257634e487b7160e01b600052602260045260246000fd5b50919050565b601f8211156200011657600081815260208120601f850160051c81016020861015620000f15750805b601f850160051c820191505b818110156200011257828155600101620000fd565b5050505b505050565b81516001600160401b0381111562000137576200013762000076565b6200014f816200014884546200008c565b84620000c8565b602080601f8311600181146200018757600084156200016e5750858301515b600019600386901b1c1916600185901b17855562000112565b600085815260208120601f198616915b82811015620001b85788860151825594840194600190910190840162000197565b5085821015620001d75787850151600019600388901b60f8161c191681555b5050505050600190811b01905550565b610c0280620001f76000396000f3fe608060405234801561001057600080fd5b50600436106100a95760003560e01c806343d23e051161007157806343d23e05146101375780634f48b7071461014c57806370a082311461015f57806395d89b4114610188578063a9059cbb14610190578063dd62ed3e146101a357600080fd5b806306fdde03146100ae578063095ea7b3146100cc57806318160ddd146100ef57806323b872dd14610105578063313ce56714610118575b600080fd5b6100b66101dc565b6040516100c391906108fe565b60405180910390f35b6100df6100da366004610968565b61026a565b60405190151581526020016100c3565b6100f7610281565b6040519081526020016100c3565b6100df610113366004610992565b6102a7565b6002546101259060ff1681565b60405160ff90911681526020016100c3565b61014a6101453660046109ce565b6102f9565b005b6100df61015a3660046109e7565b610306565b6100f761016d366004610a09565b6001600160a01b031660009081526003602052604090205490565b6100b66103cc565b6100df61019e366004610968565b6103d9565b6100f76101b1366004610a2b565b6001600160a01b03918216600090815260046020908152604080832093909416825291909152205490565b600080546101e990610a5e565b80601f016020809104026020016040519081016040528092919081815260200182805461021590610a5e565b80156102625780601f1061023757610100808354040283529160200191610262565b820191906000526020600020905b81548152906001019060200180831161024557829003601f168201915b505050505081565b60006102773384846103e6565b5060015b92915050565b6002546000906102959060ff16600a610b83565b6102a290620f4240610b8f565b905090565b60006102b48484846104f4565b6001600160a01b0384166000908152600460209081526040808320338085529252909120546102ef9186916102ea908690610ba6565b6103e6565b5060019392505050565b61030333826106a0565b50565b60008183101561033257600061031c8484610ba6565b905061032833826106a0565b600191505061027b565b818311156103c35760006103468385610ba6565b336000908152600360205260409020549091508111156103b95760405162461bcd60e51b815260206004820152602360248201527f496e73756666696369656e7420746f6b656e7320666f7220434f322070656e616044820152626c747960e81b60648201526084015b60405180910390fd5b610328338261079e565b50600092915050565b600180546101e990610a5e565b60006102773384846104f4565b6001600160a01b03831661043c5760405162461bcd60e51b815260206004820152601960248201527f417070726f76652066726f6d207a65726f20616464726573730000000000000060448201526064016103b0565b6001600160a01b0382166104925760405162461bcd60e51b815260206004820152601760248201527f417070726f766520746f207a65726f206164647265737300000000000000000060448201526064016103b0565b6001600160a01b0383811660008181526004602090815260408083209487168084529482529182902085905590518481527f8c5be1e5ebec7d5bd14f71427d1e84f3dd0314c0f7b2291e5b200ac8c7c3b92591015b60405180910390a3505050565b6001600160a01b03831661054a5760405162461bcd60e51b815260206004820152601a60248201527f5472616e736665722066726f6d207a65726f206164647265737300000000000060448201526064016103b0565b6001600160a01b0382166105a05760405162461bcd60e51b815260206004820152601860248201527f5472616e7366657220746f207a65726f2061646472657373000000000000000060448201526064016103b0565b6001600160a01b0383166000908152600360205260409020548111156105ff5760405162461bcd60e51b8152602060048201526014602482015273496e73756666696369656e742062616c616e636560601b60448201526064016103b0565b6001600160a01b03831660009081526003602052604081208054839290610627908490610ba6565b90915550506001600160a01b03821660009081526003602052604081208054839290610654908490610bb9565b92505081905550816001600160a01b0316836001600160a01b03167fddf252ad1be2c89b69c2b068fc378daa952ba7f163c4a11628f55a4df523b3ef836040516104e791815260200190565b6001600160a01b0382166106ed5760405162461bcd60e51b81526020600482015260146024820152734d696e7420746f207a65726f206164647265737360601b60448201526064016103b0565b6001600160a01b03821660009081526003602052604081208054839290610715908490610bb9565b90915550506040518181526001600160a01b038316907f3f2c9d57c068687834f0de942a9babb9e5acab57d516d3480a3c16ee165a42739060200160405180910390a26040518181526001600160a01b038316906000907fddf252ad1be2c89b69c2b068fc378daa952ba7f163c4a11628f55a4df523b3ef906020015b60405180910390a35050565b6001600160a01b0382166107ed5760405162461bcd60e51b81526020600482015260166024820152754275726e2066726f6d207a65726f206164647265737360501b60448201526064016103b0565b6001600160a01b0382166000908152600360205260409020548111156108555760405162461bcd60e51b815260206004820152601b60248201527f4275726e20616d6f756e7420657863656564732062616c616e6365000000000060448201526064016103b0565b6001600160a01b0382166000908152600360205260408120805483929061087d908490610ba6565b90915550506040518181526001600160a01b038316907ffd38818f5291bf0bb3a2a48aadc06ba8757865d1dabd804585338aab3009dcb69060200160405180910390a26040518181526000906001600160a01b038416907fddf252ad1be2c89b69c2b068fc378daa952ba7f163c4a11628f55a4df523b3ef90602001610792565b600060208083528351808285015260005b8181101561092b5785810183015185820160400152820161090f565b506000604082860101526040601f19601f8301168501019250505092915050565b80356001600160a01b038116811461096357600080fd5b919050565b6000806040838503121561097b57600080fd5b6109848361094c565b946020939093013593505050565b6000806000606084860312156109a757600080fd5b6109b08461094c565b92506109be6020850161094c565b9150604084013590509250925092565b6000602082840312156109e057600080fd5b5035919050565b600080604083850312156109fa57600080fd5b50508035926020909101359150565b600060208284031215610a1b57600080fd5b610a248261094c565b9392505050565b60008060408385031215610a3e57600080fd5b610a478361094c565b9150610a556020840161094c565b90509250929050565b600181811c90821680610a7257607f821691505b602082108103610a9257634e487b7160e01b600052602260045260246000fd5b50919050565b634e487b7160e01b600052601160045260246000fd5b600181815b80851115610ae9578160001904821115610acf57610acf610a98565b80851615610adc57918102915b93841c9390800290610ab3565b509250929050565b600082610b005750600161027b565b81610b0d5750600061027b565b81600181146103285760028103610b3a5760ff841115610b2f57610b2f610a98565b50506001821b61027b565b5060208310610133831016604e8410600b8410161715610b5d575081810a61027b565b610b678383610aae565b8060001904821115610b7b57610b7b610a98565b029392505050565b6000610a248383610af1565b808202811582820484141761027b5761027b610a98565b8181038181111561027b5761027b610a98565b8082018082111561027b5761027b610a9856fea26469706673582212209ec4e0580a18204ee35db1232a6863b0594ad4121383b2e5587f3ebb89d2280d64736f6c63430008140033",
  "linkReferences": {},
  "deployedLinkReferences": {}
}