{
  "_format": "hh-sol-artifact-1",
  "contractName": "SustainabilityMetrics",
  "sourceName": "contracts/SustainabilityMetrics.sol",
  "abi": [
    {
      "anonymous": false,
      "inputs": [
        {
          "indexed": true,
          "internalType": "uint256",
          "name": "metricId",
          "type": "uint256"
        },
        {
          "indexed": true,
          "internalType": "uint256",
          "name": "productId",
          "type": "uint256"
        },
        {
          "indexed": false,
          "internalType": "string",
          "name": "metricType",
          "type": "string"
        }
      ],
      "name": "MetricRecorded",
      "type": "event"
    },
    {
      "anonymous": false,
      "inputs": [
        {
          "indexed": true,
          "internalType": "uint256",
          "name": "metricId",
          "type": "uint256"
        },
        {
          "indexed": false,
          "internalType": "uint256",
          "name": "newValue",
          "type": "uint256"
        }
      ],
      "name": "MetricUpdated",
      "type": "event"
    },
    {
      "anonymous": false,
      "inputs": [
        {
          "indexed": true,
          "internalType": "uint256",
          "name": "metricId",
          "type": "uint256"
        },
        {
          "indexed": false,
          "internalType": "address",
          "name": "verifier",
          "type": "address"
        }
      ],
      "name": "MetricVerified",
      "type": "event"
    },
    {
      "inputs": [
        {
          "internalType": "uint256",
          "name": "_metricId",
          "type": "uint256"
        }
      ],
      "name": "getMetric",
      "outputs": [
        {
          "internalType": "uint256",
          "name": "metricId",
          "type": "uint256"
        },
        {
          "internalType": "uint256",
          "name": "productId",
          "type": "uint256"
        },
        {
          "internalType": "address",
          "name": "reporter",
          "type": "address"
        },
        {
          "internalType": "string",
          "name": "metricType",
          "type": "string"
        },
        {
          "internalType": "uint256",
          "name": "value",
          "type": "uint256"
        },
        {
          "internalType": "string",
          "name": "unit",
          "type": "string"
        },
        {
          "internalType": "string",
          "name": "methodology",
          "type": "string"
        },
        {
          "internalType": "uint256",
          "name": "timestamp",
          "type": "uint256"
        },
        {
          "internalType": "string",
          "name": "metadata",
          "type": "string"
        }
      ],
      "stateMutability": "view",
      "type": "function"
    },
    {
      "inputs": [
        {
          "internalType": "uint256",
          "name": "_productId",
          "type": "uint256"
        }
      ],
      "name": "getProductMetrics",
      "outputs": [
        {
          "internalType": "uint256[]",
          "name": "",
          "type": "uint256[]"
        }
      ],
      "stateMutability": "view",
      "type": "function"
    },
    {
      "inputs": [
        {
          "internalType": "address",
          "name": "_reporter",
          "type": "address"
        }
      ],
      "name": "getReporterMetrics",
      "outputs": [
        {
          "internalType": "uint256[]",
          "name": "",
          "type": "uint256[]"
        }
      ],
      "stateMutability": "view",
      "type": "function"
    },
    {
      "inputs": [
        {
          "internalType": "string",
          "name": "_metricType",
          "type": "string"
        }
      ],
      "name": "getTypeMetrics",
      "outputs": [
        {
          "internalType": "uint256[]",
          "name": "",
          "type": "uint256[]"
        }
      ],
      "stateMutability": "view",
      "type": "function"
    },
    {
      "inputs": [
        {
          "internalType": "uint256",
          "name": "_productId",
          "type": "uint256"
        },
        {
          "internalType": "string",
          "name": "_metricType",
          "type": "string"
        },
        {
          "internalType": "uint256",
          "name": "_value",
          "type": "uint256"
        },
        {
          "internalType": "string",
          "name": "_unit",
          "type": "string"
        },
        {
          "internalType": "string",
          "name": "_methodology",
          "type": "string"
        },
        {
          "internalType": "string",
          "name": "_metadata",
          "type": "string"
        }
      ],
      "name": "recordMetric",
      "outputs": [
        {
          "internalType": "uint256",
          "name": "",
          "type": "uint256"
        }
      ],
      "stateMutability": "nonpayable",
      "type": "function"
    },
    {
      "inputs": [
        {
          "internalType": "uint256",
          "name": "_metricId",
          "type": "uint256"
        },
        {
          "internalType": "uint256",
          "name": "_value",
          "type": "uint256"
        },
        {
          "internalType": "string",
          "name": "_methodology",
          "type": "string"
        },
        {
          "internalType": "string",
          "name": "_metadata",
          "type": "string"
        }
      ],
      "name": "updateMetric",
      "outputs": [],
      "stateMutability": "nonpayable",
      "type": "function"
    },
    {
      "inputs": [
        {
          "internalType": "uint256",
          "name": "_metricId",
          "type": "uint256"
        }
      ],
      "name": "verifyMetric",
      "outputs": [],
      "stateMutability": "nonpayable",
      "type": "function"
    }
  ],
  "bytecode": "0x608060405234801561001057600080fd5b50610f4b806100206000396000f3fe608060405234801561001057600080fd5b506004361061007d5760003560e01c806396a5897f1161005b57806396a5897f146100e8578063ba672526146100fb578063ceba6d6f1461010e578063f5a09b871461012157600080fd5b80633fc6760914610082578063582bd8f1146100ab5780635839ed8f146100d3575b600080fd5b6100956100903660046109c9565b610142565b6040516100a291906109f9565b60405180910390f35b6100be6100b9366004610a3d565b6101ae565b6040516100a299989796959493929190610aa6565b6100e66100e1366004610bd4565b6104eb565b005b6100e66100f6366004610a3d565b6105ea565b610095610109366004610c4b565b610651565b61009561011c366004610a3d565b6106bf565b61013461012f366004610c88565b61071f565b6040519081526020016100a2565b6001600160a01b0381166000908152600360209081526040918290208054835181840281018401909452808452606093928301828280156101a257602002820191906000526020600020905b81548152602001906001019080831161018e575b50505050509050919050565b600080600060606000606080600060608960016000828152602001908152602001600020600001546000036101fe5760405162461bcd60e51b81526004016101f590610d47565b60405180910390fd5b60008b815260016020818152604080842081516101208101835281548152938101549284019290925260028201546001600160a01b03169083015260038101805460608401919061024e90610d76565b80601f016020809104026020016040519081016040528092919081815260200182805461027a90610d76565b80156102c75780601f1061029c576101008083540402835291602001916102c7565b820191906000526020600020905b8154815290600101906020018083116102aa57829003601f168201915b50505050508152602001600482015481526020016005820180546102ea90610d76565b80601f016020809104026020016040519081016040528092919081815260200182805461031690610d76565b80156103635780601f1061033857610100808354040283529160200191610363565b820191906000526020600020905b81548152906001019060200180831161034657829003601f168201915b5050505050815260200160068201805461037c90610d76565b80601f01602080910402602001604051908101604052809291908181526020018280546103a890610d76565b80156103f55780601f106103ca576101008083540402835291602001916103f5565b820191906000526020600020905b8154815290600101906020018083116103d857829003601f168201915b505050505081526020016007820154815260200160088201805461041890610d76565b80601f016020809104026020016040519081016040528092919081815260200182805461044490610d76565b80156104915780601f1061046657610100808354040283529160200191610491565b820191906000526020600020905b81548152906001019060200180831161047457829003601f168201915b5050505050815250509050806000015181602001518260400151836060015184608001518560a001518660c001518760e001518861010001519a509a509a509a509a509a509a509a509a5050509193959799909294969850565b6000848152600160205260408120548591036105195760405162461bcd60e51b81526004016101f590610d47565b600085815260016020526040902060028101546001600160a01b031633146105835760405162461bcd60e51b815260206004820152601f60248201527f4f6e6c79207265706f727465722063616e20757064617465206d65747269630060448201526064016101f5565b60048101859055600681016105988582610dff565b50600881016105a78482610dff565b50857f15711b5ee0ad41d7ffec5177341fb8e7f15af6068f90049e7d78998e81eb7152866040516105da91815260200190565b60405180910390a2505050505050565b6000818152600160205260408120548291036106185760405162461bcd60e51b81526004016101f590610d47565b60405133815282907fb84f253dee94b13dca6750497c6598c7150d78cfdda2cc0f0245db1b4bcd5f5f9060200160405180910390a25050565b60606004826040516106639190610ebf565b90815260408051918290036020908101832080548083028501830190935282845291908301828280156101a2576020028201919060005260206000209081548152602001906001019080831161018e5750505050509050919050565b6000818152600260209081526040918290208054835181840281018401909452808452606093928301828280156101a2576020028201919060005260206000209081548152602001906001019080831161018e5750505050509050919050565b6000808651116107715760405162461bcd60e51b815260206004820152601b60248201527f4d657472696320747970652063616e6e6f7420626520656d707479000000000060448201526064016101f5565b60008451116107b95760405162461bcd60e51b8152602060048201526014602482015273556e69742063616e6e6f7420626520656d70747960601b60448201526064016101f5565b600083511161080a5760405162461bcd60e51b815260206004820152601b60248201527f4d6574686f646f6c6f67792063616e6e6f7420626520656d707479000000000060448201526064016101f5565b60008054908061081983610edb565b909155505060008054604080516101208101825282815260208082018c815233838501908152606084018d8152608085018d905260a085018c905260c085018b90524260e086015261010085018a9052868852600193849052949096208351815590519181019190915593516002850180546001600160a01b0319166001600160a01b0390921691909117905590519192909160038201906108bb9082610dff565b506080820151600482015560a082015160058201906108da9082610dff565b5060c082015160068201906108ef9082610dff565b5060e08201516007820155610100820151600882019061090f9082610dff565b50505060008881526002602090815260408083208054600181810183559185528385200185905533845260038352818420805491820181558452919092200182905551600490610960908990610ebf565b90815260405190819003602090810182208054600181018255600091825291902001829055889082907f9b828a64c056c0bcc69dbfa5b2cbc9edbd8018fb94e6e18e19a0841fdb832c99906109b6908b90610f02565b60405180910390a3979650505050505050565b6000602082840312156109db57600080fd5b81356001600160a01b03811681146109f257600080fd5b9392505050565b6020808252825182820181905260009190848201906040850190845b81811015610a3157835183529284019291840191600101610a15565b50909695505050505050565b600060208284031215610a4f57600080fd5b5035919050565b60005b83811015610a71578181015183820152602001610a59565b50506000910152565b60008151808452610a92816020860160208601610a56565b601f01601f19169290920160200192915050565b898152602081018990526001600160a01b038816604082015261012060608201819052600090610ad88382018a610a7a565b905087608084015282810360a0840152610af28188610a7a565b905082810360c0840152610b068187610a7a565b90508460e0840152828103610100840152610b218185610a7a565b9c9b505050505050505050505050565b634e487b7160e01b600052604160045260246000fd5b600082601f830112610b5857600080fd5b813567ffffffffffffffff80821115610b7357610b73610b31565b604051601f8301601f19908116603f01168101908282118183101715610b9b57610b9b610b31565b81604052838152866020858801011115610bb457600080fd5b836020870160208301376000602085830101528094505050505092915050565b60008060008060808587031215610bea57600080fd5b8435935060208501359250604085013567ffffffffffffffff80821115610c1057600080fd5b610c1c88838901610b47565b93506060870135915080821115610c3257600080fd5b50610c3f87828801610b47565b91505092959194509250565b600060208284031215610c5d57600080fd5b813567ffffffffffffffff811115610c7457600080fd5b610c8084828501610b47565b949350505050565b60008060008060008060c08789031215610ca157600080fd5b86359550602087013567ffffffffffffffff80821115610cc057600080fd5b610ccc8a838b01610b47565b9650604089013595506060890135915080821115610ce957600080fd5b610cf58a838b01610b47565b94506080890135915080821115610d0b57600080fd5b610d178a838b01610b47565b935060a0890135915080821115610d2d57600080fd5b50610d3a89828a01610b47565b9150509295509295509295565b60208082526015908201527413595d1c9a58c8191bd95cc81b9bdd08195e1a5cdd605a1b604082015260600190565b600181811c90821680610d8a57607f821691505b602082108103610daa57634e487b7160e01b600052602260045260246000fd5b50919050565b601f821115610dfa57600081815260208120601f850160051c81016020861015610dd75750805b601f850160051c820191505b81811015610df657828155600101610de3565b5050505b505050565b815167ffffffffffffffff811115610e1957610e19610b31565b610e2d81610e278454610d76565b84610db0565b602080601f831160018114610e625760008415610e4a5750858301515b600019600386901b1c1916600185901b178555610df6565b600085815260208120601f198616915b82811015610e9157888601518255948401946001909101908401610e72565b5085821015610eaf5787850151600019600388901b60f8161c191681555b5050505050600190811b01905550565b60008251610ed1818460208701610a56565b9190910192915050565b600060018201610efb57634e487b7160e01b600052601160045260246000fd5b5060010190565b6020815260006109f26020830184610a7a56fea2646970667358221220fd6a0e3c995682d6c7dc0ca007d7b8e45cb89b2e5169c6e2488aec77363d45d864736f6c63430008140033",
  "linkReferences": {},
  "deployedLinkReferences": {}
}